{
  "contractName": "Kyc",
  "abi": [
    {
      "inputs": [],
      "stateMutability": "nonpayable",
      "type": "constructor"
    },
    {
      "anonymous": false,
      "inputs": [
        {
          "indexed": false,
          "internalType": "address",
          "name": "bankAddress",
          "type": "address"
        },
        {
          "indexed": false,
          "internalType": "string",
          "name": "message",
          "type": "string"
        }
      ],
      "name": "alreadyVoted",
      "type": "event"
    },
    {
      "inputs": [
        {
          "internalType": "uint256",
          "name": "",
          "type": "uint256"
        }
      ],
      "name": "bankList",
      "outputs": [
        {
          "internalType": "address",
          "name": "",
          "type": "address"
        }
      ],
      "stateMutability": "view",
      "type": "function",
      "constant": true
    },
    {
      "inputs": [
        {
          "internalType": "address",
          "name": "",
          "type": "address"
        }
      ],
      "name": "banks",
      "outputs": [
        {
          "internalType": "bytes32",
          "name": "name",
          "type": "bytes32"
        },
        {
          "internalType": "address",
          "name": "bank",
          "type": "address"
        },
        {
          "internalType": "uint256",
          "name": "rating",
          "type": "uint256"
        },
        {
          "internalType": "uint8",
          "name": "kycCount",
          "type": "uint8"
        },
        {
          "internalType": "bytes32",
          "name": "regNumber",
          "type": "bytes32"
        }
      ],
      "stateMutability": "view",
      "type": "function",
      "constant": true
    },
    {
      "inputs": [
        {
          "internalType": "bytes32",
          "name": "",
          "type": "bytes32"
        }
      ],
      "name": "customers",
      "outputs": [
        {
          "internalType": "bytes32",
          "name": "userName",
          "type": "bytes32"
        },
        {
          "internalType": "bytes32",
          "name": "dataHash",
          "type": "bytes32"
        },
        {
          "internalType": "uint256",
          "name": "rating",
          "type": "uint256"
        },
        {
          "internalType": "uint8",
          "name": "upVotes",
          "type": "uint8"
        },
        {
          "internalType": "address",
          "name": "bank",
          "type": "address"
        }
      ],
      "stateMutability": "view",
      "type": "function",
      "constant": true
    },
    {
      "inputs": [
        {
          "internalType": "uint256",
          "name": "",
          "type": "uint256"
        }
      ],
      "name": "finalCustomers",
      "outputs": [
        {
          "internalType": "bytes32",
          "name": "",
          "type": "bytes32"
        }
      ],
      "stateMutability": "view",
      "type": "function",
      "constant": true
    },
    {
      "inputs": [
        {
          "internalType": "bytes32",
          "name": "",
          "type": "bytes32"
        }
      ],
      "name": "kycRequests",
      "outputs": [
        {
          "internalType": "bytes32",
          "name": "userName",
          "type": "bytes32"
        },
        {
          "internalType": "address",
          "name": "bank",
          "type": "address"
        },
        {
          "internalType": "bytes32",
          "name": "dataHash",
          "type": "bytes32"
        },
        {
          "internalType": "bool",
          "name": "isAllowed",
          "type": "bool"
        }
      ],
      "stateMutability": "view",
      "type": "function",
      "constant": true
    },
    {
      "inputs": [
        {
          "internalType": "bytes32",
          "name": "customerName",
          "type": "bytes32"
        },
        {
          "internalType": "bytes32",
          "name": "customerDataHash",
          "type": "bytes32"
        }
      ],
      "name": "addKycRequest",
      "outputs": [
        {
          "internalType": "uint8",
          "name": "",
          "type": "uint8"
        }
      ],
      "stateMutability": "nonpayable",
      "type": "function"
    },
    {
      "inputs": [
        {
          "internalType": "bytes32",
          "name": "customerName",
          "type": "bytes32"
        },
        {
          "internalType": "bytes32",
          "name": "customerDataHash",
          "type": "bytes32"
        }
      ],
      "name": "addCustomer",
      "outputs": [
        {
          "internalType": "uint8",
          "name": "",
          "type": "uint8"
        }
      ],
      "stateMutability": "nonpayable",
      "type": "function"
    },
    {
      "inputs": [
        {
          "internalType": "bytes32",
          "name": "customerName",
          "type": "bytes32"
        },
        {
          "internalType": "bytes32",
          "name": "customerDataHash",
          "type": "bytes32"
        }
      ],
      "name": "removeKycRequest",
      "outputs": [
        {
          "internalType": "uint8",
          "name": "",
          "type": "uint8"
        }
      ],
      "stateMutability": "nonpayable",
      "type": "function"
    },
    {
      "inputs": [
        {
          "internalType": "bytes32",
          "name": "customerName",
          "type": "bytes32"
        }
      ],
      "name": "removeCustomer",
      "outputs": [
        {
          "internalType": "uint8",
          "name": "",
          "type": "uint8"
        }
      ],
      "stateMutability": "nonpayable",
      "type": "function"
    },
    {
      "inputs": [
        {
          "internalType": "bytes32",
          "name": "customerName",
          "type": "bytes32"
        },
        {
          "internalType": "bytes32",
          "name": "password",
          "type": "bytes32"
        }
      ],
      "name": "viewCustomer",
      "outputs": [
        {
          "internalType": "bytes32",
          "name": "",
          "type": "bytes32"
        }
      ],
      "stateMutability": "view",
      "type": "function",
      "constant": true
    },
    {
      "inputs": [
        {
          "internalType": "bytes32",
          "name": "customerName",
          "type": "bytes32"
        }
      ],
      "name": "upVoteCustomer",
      "outputs": [
        {
          "internalType": "uint8",
          "name": "",
          "type": "uint8"
        }
      ],
      "stateMutability": "nonpayable",
      "type": "function"
    },
    {
      "inputs": [
        {
          "internalType": "bytes32",
          "name": "customerName",
          "type": "bytes32"
        },
        {
          "internalType": "bytes32",
          "name": "password",
          "type": "bytes32"
        },
        {
          "internalType": "bytes32",
          "name": "dataHash",
          "type": "bytes32"
        }
      ],
      "name": "modifyCustomerData",
      "outputs": [
        {
          "internalType": "uint8",
          "name": "",
          "type": "uint8"
        }
      ],
      "stateMutability": "nonpayable",
      "type": "function"
    },
    {
      "inputs": [
        {
          "internalType": "address",
          "name": "bankAddress",
          "type": "address"
        }
      ],
      "name": "getBankRequests",
      "outputs": [
        {
          "internalType": "bytes32[]",
          "name": "",
          "type": "bytes32[]"
        }
      ],
      "stateMutability": "view",
      "type": "function",
      "constant": true
    },
    {
      "inputs": [
        {
          "internalType": "address",
          "name": "bankAddress",
          "type": "address"
        }
      ],
      "name": "upVoteBank",
      "outputs": [
        {
          "internalType": "uint8",
          "name": "",
          "type": "uint8"
        }
      ],
      "stateMutability": "nonpayable",
      "type": "function"
    },
    {
      "inputs": [
        {
          "internalType": "bytes32",
          "name": "customerName",
          "type": "bytes32"
        }
      ],
      "name": "getCustomerRating",
      "outputs": [
        {
          "internalType": "uint256",
          "name": "",
          "type": "uint256"
        }
      ],
      "stateMutability": "view",
      "type": "function",
      "constant": true
    },
    {
      "inputs": [
        {
          "internalType": "address",
          "name": "bankAddress",
          "type": "address"
        }
      ],
      "name": "getBankRating",
      "outputs": [
        {
          "internalType": "uint256",
          "name": "",
          "type": "uint256"
        }
      ],
      "stateMutability": "view",
      "type": "function",
      "constant": true
    },
    {
      "inputs": [
        {
          "internalType": "bytes32",
          "name": "customerName",
          "type": "bytes32"
        }
      ],
      "name": "lastUpdatedBy",
      "outputs": [
        {
          "internalType": "address",
          "name": "",
          "type": "address"
        }
      ],
      "stateMutability": "view",
      "type": "function",
      "constant": true
    },
    {
      "inputs": [
        {
          "internalType": "bytes32",
          "name": "customerName",
          "type": "bytes32"
        },
        {
          "internalType": "bytes32",
          "name": "password",
          "type": "bytes32"
        }
      ],
      "name": "setPassword",
      "outputs": [
        {
          "internalType": "bool",
          "name": "",
          "type": "bool"
        }
      ],
      "stateMutability": "nonpayable",
      "type": "function"
    },
    {
      "inputs": [
        {
          "internalType": "address",
          "name": "bankAddress",
          "type": "address"
        }
      ],
      "name": "getBankDetails",
      "outputs": [
        {
          "internalType": "bytes32",
          "name": "",
          "type": "bytes32"
        },
        {
          "internalType": "address",
          "name": "",
          "type": "address"
        },
        {
          "internalType": "uint256",
          "name": "",
          "type": "uint256"
        },
        {
          "internalType": "uint8",
          "name": "",
          "type": "uint8"
        },
        {
          "internalType": "bytes32",
          "name": "",
          "type": "bytes32"
        }
      ],
      "stateMutability": "view",
      "type": "function",
      "constant": true
    },
    {
      "inputs": [
        {
          "internalType": "bytes32",
          "name": "bankName",
          "type": "bytes32"
        },
        {
          "internalType": "address",
          "name": "bankAddress",
          "type": "address"
        },
        {
          "internalType": "bytes32",
          "name": "regNumber",
          "type": "bytes32"
        }
      ],
      "name": "addBank",
      "outputs": [
        {
          "internalType": "bool",
          "name": "",
          "type": "bool"
        }
      ],
      "stateMutability": "nonpayable",
      "type": "function"
    },
    {
      "inputs": [
        {
          "internalType": "address",
          "name": "bankAddress",
          "type": "address"
        }
      ],
      "name": "removeBank",
      "outputs": [
        {
          "internalType": "bool",
          "name": "",
          "type": "bool"
        }
      ],
      "stateMutability": "nonpayable",
      "type": "function"
    }
  ],
  "bytecode": "0x608060405234801561001057600080fd5b5033600960006101000a81548173ffffffffffffffffffffffffffffffffffffffff021916908373ffffffffffffffffffffffffffffffffffffffff1602179055506032600a8190555061488f806100696000396000f3fe608060405234801561001057600080fd5b50600436106101375760003560e01c80638699bc40116100b8578063b8144a721161007c578063b8144a721461070b578063c9091acc14610763578063cba49c21146107b5578063ccb6b0d214610823578063d342959b14610881578063ea8411981461090857610137565b80638699bc40146105835780638a7221cb146105c557806392a67c59146106115780639649650c1461066d578063b1d4e355146106c957610137565b806358fc3c3c116100ff57806358fc3c3c146103345780635cc4a477146103845780636272c418146103d6578063628e09ad1461044457806380c3b8c2146104dd57610137565b806306aecb8c1461013c578063130d70cd146101ac57806315101e02146101f45780634491bf5e1461029a57806356fb2ba7146102e2575b600080fd5b6101926004803603606081101561015257600080fd5b8101908080359060200190929190803573ffffffffffffffffffffffffffffffffffffffff16906020019092919080359060200190929190505050610998565b604051808215151515815260200191505060405180910390f35b6101d8600480360360208110156101c257600080fd5b8101908080359060200190929190505050610d61565b604051808260ff1660ff16815260200191505060405180910390f35b6102366004803603602081101561020a57600080fd5b81019080803573ffffffffffffffffffffffffffffffffffffffff169060200190929190505050611246565b604051808681526020018573ffffffffffffffffffffffffffffffffffffffff1673ffffffffffffffffffffffffffffffffffffffff1681526020018481526020018360ff1660ff1681526020018281526020019550505050505060405180910390f35b6102c6600480360360208110156102b057600080fd5b81019080803590602001909291905050506115c6565b604051808260ff1660ff16815260200191505060405180910390f35b610318600480360360408110156102f857600080fd5b8101908080359060200190929190803590602001909291905050506117d8565b604051808260ff1660ff16815260200191505060405180910390f35b61036a6004803603604081101561034a57600080fd5b810190808035906020019092919080359060200190929190505050611a5f565b604051808215151515815260200191505060405180910390f35b6103ba6004803603604081101561039a57600080fd5b810190808035906020019092919080359060200190929190505050611b69565b604051808260ff1660ff16815260200191505060405180910390f35b610402600480360360208110156103ec57600080fd5b8101908080359060200190929190505050611ee6565b604051808273ffffffffffffffffffffffffffffffffffffffff1673ffffffffffffffffffffffffffffffffffffffff16815260200191505060405180910390f35b6104866004803603602081101561045a57600080fd5b81019080803573ffffffffffffffffffffffffffffffffffffffff16906020019092919050505061200b565b6040518080602001828103825283818151815260200191508051906020019060200280838360005b838110156104c95780820151818401526020810190506104ae565b505050509050019250505060405180910390f35b61051f600480360360208110156104f357600080fd5b81019080803573ffffffffffffffffffffffffffffffffffffffff169060200190929190505050612228565b604051808681526020018573ffffffffffffffffffffffffffffffffffffffff1673ffffffffffffffffffffffffffffffffffffffff1681526020018481526020018360ff1660ff1681526020018281526020019550505050505060405180910390f35b6105af6004803603602081101561059957600080fd5b810190808035906020019092919050505061228b565b6040518082815260200191505060405180910390f35b6105fb600480360360408110156105db57600080fd5b8101908080359060200190929190803590602001909291905050506122ac565b6040518082815260200191505060405180910390f35b6106516004803603606081101561062757600080fd5b81019080803590602001909291908035906020019092919080359060200190929190505050612486565b604051808260ff1660ff16815260200191505060405180910390f35b6106af6004803603602081101561068357600080fd5b81019080803573ffffffffffffffffffffffffffffffffffffffff16906020019092919050505061284a565b604051808215151515815260200191505060405180910390f35b6106f5600480360360208110156106df57600080fd5b8101908080359060200190929190505050612b32565b6040518082815260200191505060405180910390f35b61074d6004803603602081101561072157600080fd5b81019080803573ffffffffffffffffffffffffffffffffffffffff169060200190929190505050612c37565b6040518082815260200191505060405180910390f35b6107996004803603604081101561077957600080fd5b810190808035906020019092919080359060200190929190505050612d69565b604051808260ff1660ff16815260200191505060405180910390f35b6107e1600480360360208110156107cb57600080fd5b81019080803590602001909291905050506131e2565b604051808273ffffffffffffffffffffffffffffffffffffffff1673ffffffffffffffffffffffffffffffffffffffff16815260200191505060405180910390f35b6108656004803603602081101561083957600080fd5b81019080803573ffffffffffffffffffffffffffffffffffffffff16906020019092919050505061321e565b604051808260ff1660ff16815260200191505060405180910390f35b6108ad6004803603602081101561089757600080fd5b8101908080359060200190929190505050613a57565b604051808581526020018473ffffffffffffffffffffffffffffffffffffffff1673ffffffffffffffffffffffffffffffffffffffff1681526020018381526020018215151515815260200194505050505060405180910390f35b6109346004803603602081101561091e57600080fd5b8101908080359060200190929190505050613ab4565b604051808681526020018581526020018481526020018360ff1660ff1681526020018273ffffffffffffffffffffffffffffffffffffffff1673ffffffffffffffffffffffffffffffffffffffff1681526020019550505050505060405180910390f35b60008273ffffffffffffffffffffffffffffffffffffffff16600160008573ffffffffffffffffffffffffffffffffffffffff1673ffffffffffffffffffffffffffffffffffffffff16815260200190815260200160002060010160009054906101000a900473ffffffffffffffffffffffffffffffffffffffff1673ffffffffffffffffffffffffffffffffffffffff161415610a81576040517f08c379a000000000000000000000000000000000000000000000000000000000815260040180806020018281038252602581526020018061477d6025913960400191505060405180910390fd5b83600160008573ffffffffffffffffffffffffffffffffffffffff1673ffffffffffffffffffffffffffffffffffffffff1681526020019081526020016000206000018190555082600160008573ffffffffffffffffffffffffffffffffffffffff1673ffffffffffffffffffffffffffffffffffffffff16815260200190815260200160002060010160006101000a81548173ffffffffffffffffffffffffffffffffffffffff021916908373ffffffffffffffffffffffffffffffffffffffff1602179055506000600160008573ffffffffffffffffffffffffffffffffffffffff1673ffffffffffffffffffffffffffffffffffffffff168152602001908152602001600020600201819055506000600160008573ffffffffffffffffffffffffffffffffffffffff1673ffffffffffffffffffffffffffffffffffffffff16815260200190815260200160002060030160006101000a81548160ff021916908360ff16021790555081600160008573ffffffffffffffffffffffffffffffffffffffff1673ffffffffffffffffffffffffffffffffffffffff168152602001908152602001600020600401819055506006839080600181540180825580915050600190039060005260206000200160009091909190916101000a81548173ffffffffffffffffffffffffffffffffffffffff021916908373ffffffffffffffffffffffffffffffffffffffff160217905550600460008473ffffffffffffffffffffffffffffffffffffffff1673ffffffffffffffffffffffffffffffffffffffff168152602001908152602001600020600181600181540180825580915050039060005260206000200160009054906101000a905050600360008473ffffffffffffffffffffffffffffffffffffffff1673ffffffffffffffffffffffffffffffffffffffff168152602001908152602001600020600181600181540180825580915050039060005260206000205050600190509392505050565b60003373ffffffffffffffffffffffffffffffffffffffff16600160003373ffffffffffffffffffffffffffffffffffffffff1673ffffffffffffffffffffffffffffffffffffffff16815260200190815260200160002060010160009054906101000a900473ffffffffffffffffffffffffffffffffffffffff1673ffffffffffffffffffffffffffffffffffffffff1614610e49576040517f08c379a000000000000000000000000000000000000000000000000000000000815260040180806020018281038252603881526020018061471b6038913960400191505060405180910390fd5b816000808481526020019081526020016000206000015414610ed3576040517f08c379a000000000000000000000000000000000000000000000000000000000815260040180806020018281038252601c8152602001807f5468697320637573746f6d657220646f65736e2774206578697374730000000081525060200191505060405180910390fd5b3373ffffffffffffffffffffffffffffffffffffffff16600160003373ffffffffffffffffffffffffffffffffffffffff1673ffffffffffffffffffffffffffffffffffffffff16815260200190815260200160002060010160009054906101000a900473ffffffffffffffffffffffffffffffffffffffff1673ffffffffffffffffffffffffffffffffffffffff1614610fb9576040517f08c379a000000000000000000000000000000000000000000000000000000000815260040180806020018281038252603881526020018061471b6038913960400191505060405180910390fd5b60008090505b600360003373ffffffffffffffffffffffffffffffffffffffff1673ffffffffffffffffffffffffffffffffffffffff168152602001908152602001600020805490508110156110fb5782600360003373ffffffffffffffffffffffffffffffffffffffff1673ffffffffffffffffffffffffffffffffffffffff168152602001908152602001600020828154811061105457fe5b906000526020600020015414156110ee577fb6d4c80e432e3b2f0a7bdebcf6040197f0bd0572e7bb324e126521fa5966657c33604051808273ffffffffffffffffffffffffffffffffffffffff1673ffffffffffffffffffffffffffffffffffffffff16815260200180602001828103825260248152602001806147f8602491396040019250505060405180910390a16000915050611241565b8080600101915050610fbf565b50600360003373ffffffffffffffffffffffffffffffffffffffff1673ffffffffffffffffffffffffffffffffffffffff168152602001908152602001600020829080600181540180825580915050600190039060005260206000200160009091909190915055600160008084815260200190815260200160002060030160008282829054906101000a900460ff160192506101000a81548160ff021916908360ff160217905550600680549050606460008085815260200190815260200160002060030160009054906101000a900460ff160260ff16816111d957fe5b0460008084815260200190815260200160002060020181905550600a5460008084815260200190815260200160002060020154111561123c5760078290806001815401808255809150506001900390600052602060002001600090919091909150555b600190505b919050565b60008060008060003373ffffffffffffffffffffffffffffffffffffffff16600160003373ffffffffffffffffffffffffffffffffffffffff1673ffffffffffffffffffffffffffffffffffffffff16815260200190815260200160002060010160009054906101000a900473ffffffffffffffffffffffffffffffffffffffff1673ffffffffffffffffffffffffffffffffffffffff1614611334576040517f08c379a000000000000000000000000000000000000000000000000000000000815260040180806020018281038252603881526020018061471b6038913960400191505060405180910390fd5b8573ffffffffffffffffffffffffffffffffffffffff16600160008873ffffffffffffffffffffffffffffffffffffffff1673ffffffffffffffffffffffffffffffffffffffff16815260200190815260200160002060010160009054906101000a900473ffffffffffffffffffffffffffffffffffffffff1673ffffffffffffffffffffffffffffffffffffffff1614611437576040517f08c379a00000000000000000000000000000000000000000000000000000000081526004018080602001828103825260138152602001807f42616e6b20646f65736e2774206578697374730000000000000000000000000081525060200191505060405180910390fd5b600160008773ffffffffffffffffffffffffffffffffffffffff1673ffffffffffffffffffffffffffffffffffffffff16815260200190815260200160002060000154600160008873ffffffffffffffffffffffffffffffffffffffff1673ffffffffffffffffffffffffffffffffffffffff16815260200190815260200160002060010160009054906101000a900473ffffffffffffffffffffffffffffffffffffffff16600160008973ffffffffffffffffffffffffffffffffffffffff1673ffffffffffffffffffffffffffffffffffffffff16815260200190815260200160002060020154600160008a73ffffffffffffffffffffffffffffffffffffffff1673ffffffffffffffffffffffffffffffffffffffff16815260200190815260200160002060030160009054906101000a900460ff16600160008b73ffffffffffffffffffffffffffffffffffffffff1673ffffffffffffffffffffffffffffffffffffffff168152602001908152602001600020600401549450945094509450945091939590929450565b60003373ffffffffffffffffffffffffffffffffffffffff16600160003373ffffffffffffffffffffffffffffffffffffffff1673ffffffffffffffffffffffffffffffffffffffff16815260200190815260200160002060010160009054906101000a900473ffffffffffffffffffffffffffffffffffffffff1673ffffffffffffffffffffffffffffffffffffffff16146116ae576040517f08c379a000000000000000000000000000000000000000000000000000000000815260040180806020018281038252603881526020018061471b6038913960400191505060405180910390fd5b816000808481526020019081526020016000206000015414611738576040517f08c379a000000000000000000000000000000000000000000000000000000000815260040180806020018281038252601b8152602001807f5468697320637573746f6d657220646f65736e2774206578697473000000000081525060200191505060405180910390fd5b600080838152602001908152602001600020600080820160009055600182016000905560028201600090556003820160006101000a81549060ff02191690556003820160016101000a81549073ffffffffffffffffffffffffffffffffffffffff0219169055505060056000838152602001908152602001600020600090556117c082613b17565b156117cf576117ce82613b6d565b5b60019050919050565b60003373ffffffffffffffffffffffffffffffffffffffff16600160003373ffffffffffffffffffffffffffffffffffffffff1673ffffffffffffffffffffffffffffffffffffffff16815260200190815260200160002060010160009054906101000a900473ffffffffffffffffffffffffffffffffffffffff1673ffffffffffffffffffffffffffffffffffffffff16146118c0576040517f08c379a000000000000000000000000000000000000000000000000000000000815260040180806020018281038252603881526020018061471b6038913960400191505060405180910390fd5b8260026000848152602001908152602001600020600001541461192e576040517f08c379a000000000000000000000000000000000000000000000000000000000815260040180806020018281038252602a815260200180614753602a913960400191505060405180910390fd5b600260008381526020019081526020016000206000808201600090556001820160006101000a81549073ffffffffffffffffffffffffffffffffffffffff021916905560028201600090556003820160006101000a81549060ff0219169055505060008090505b600880549050811015611a535782600882815481106119b057fe5b90600052602060002001541415611a465760006001820190505b600880549050811015611a1a57600881815481106119e457fe5b9060005260206000200154600860018303815481106119ff57fe5b906000526020600020018190555080806001019150506119ca565b506008805480611a2657fe5b600190038181906000526020600020016000905590556001915050611a59565b8080600101915050611995565b50600190505b92915050565b60003373ffffffffffffffffffffffffffffffffffffffff16600160003373ffffffffffffffffffffffffffffffffffffffff1673ffffffffffffffffffffffffffffffffffffffff16815260200190815260200160002060010160009054906101000a900473ffffffffffffffffffffffffffffffffffffffff1673ffffffffffffffffffffffffffffffffffffffff1614611b47576040517f08c379a000000000000000000000000000000000000000000000000000000000815260040180806020018281038252603881526020018061471b6038913960400191505060405180910390fd5b8160056000858152602001908152602001600020819055506001905092915050565b60003373ffffffffffffffffffffffffffffffffffffffff16600160003373ffffffffffffffffffffffffffffffffffffffff1673ffffffffffffffffffffffffffffffffffffffff16815260200190815260200160002060010160009054906101000a900473ffffffffffffffffffffffffffffffffffffffff1673ffffffffffffffffffffffffffffffffffffffff1614611c51576040517f08c379a000000000000000000000000000000000000000000000000000000000815260040180806020018281038252603881526020018061471b6038913960400191505060405180910390fd5b600073ffffffffffffffffffffffffffffffffffffffff166002600084815260200190815260200160002060010160009054906101000a900473ffffffffffffffffffffffffffffffffffffffff1673ffffffffffffffffffffffffffffffffffffffff1614611d0c576040517f08c379a000000000000000000000000000000000000000000000000000000000815260040180806020018281038252603e81526020018061481c603e913960400191505060405180910390fd5b826002600084815260200190815260200160002060000181905550816002600084815260200190815260200160002060020181905550336002600084815260200190815260200160002060010160006101000a81548173ffffffffffffffffffffffffffffffffffffffff021916908373ffffffffffffffffffffffffffffffffffffffff160217905550600a54600160003373ffffffffffffffffffffffffffffffffffffffff1673ffffffffffffffffffffffffffffffffffffffff1681526020019081526020016000206002015411611e165760006002600084815260200190815260200160002060030160006101000a81548160ff021916908315150217905550611e46565b60016002600084815260200190815260200160002060030160006101000a81548160ff0219169083151502179055505b600882908060018154018082558091505060019003906000526020600020016000909190919091505560018060003373ffffffffffffffffffffffffffffffffffffffff1673ffffffffffffffffffffffffffffffffffffffff16815260200190815260200160002060030160008282829054906101000a900460ff160192506101000a81548160ff021916908360ff1602179055506001905092915050565b60003373ffffffffffffffffffffffffffffffffffffffff16600160003373ffffffffffffffffffffffffffffffffffffffff1673ffffffffffffffffffffffffffffffffffffffff16815260200190815260200160002060010160009054906101000a900473ffffffffffffffffffffffffffffffffffffffff1673ffffffffffffffffffffffffffffffffffffffff1614611fce576040517f08c379a000000000000000000000000000000000000000000000000000000000815260040180806020018281038252603881526020018061471b6038913960400191505060405180910390fd5b60008083815260200190815260200160002060030160019054906101000a900473ffffffffffffffffffffffffffffffffffffffff169050919050565b60603373ffffffffffffffffffffffffffffffffffffffff16600160003373ffffffffffffffffffffffffffffffffffffffff1673ffffffffffffffffffffffffffffffffffffffff16815260200190815260200160002060010160009054906101000a900473ffffffffffffffffffffffffffffffffffffffff1673ffffffffffffffffffffffffffffffffffffffff16146120f3576040517f08c379a000000000000000000000000000000000000000000000000000000000815260040180806020018281038252603881526020018061471b6038913960400191505060405180910390fd5b606060088054905067ffffffffffffffff8111801561211157600080fd5b506040519080825280602002602001820160405280156121405781602001602082028036833780820191505090505b509050600080905060008090505b60088054905081101561221d578473ffffffffffffffffffffffffffffffffffffffff16600260006008848154811061218357fe5b9060005260206000200154815260200190815260200160002060010160009054906101000a900473ffffffffffffffffffffffffffffffffffffffff1673ffffffffffffffffffffffffffffffffffffffff16141561221057600881815481106121e957fe5b9060005260206000200154838360ff168151811061220357fe5b6020026020010181815250505b808060010191505061214e565b508192505050919050565b60016020528060005260406000206000915090508060000154908060010160009054906101000a900473ffffffffffffffffffffffffffffffffffffffff16908060020154908060030160009054906101000a900460ff16908060040154905085565b6007818154811061229857fe5b906000526020600020016000915090505481565b60003373ffffffffffffffffffffffffffffffffffffffff16600160003373ffffffffffffffffffffffffffffffffffffffff1673ffffffffffffffffffffffffffffffffffffffff16815260200190815260200160002060010160009054906101000a900473ffffffffffffffffffffffffffffffffffffffff1673ffffffffffffffffffffffffffffffffffffffff1614612394576040517f08c379a000000000000000000000000000000000000000000000000000000000815260040180806020018281038252603881526020018061471b6038913960400191505060405180910390fd5b82827f30000000000000000000000000000000000000000000000000000000000000006005600084815260200190815260200160002054141580156123ec575080600560008481526020019081526020016000205414155b15612466576000612465576040517f08c379a00000000000000000000000000000000000000000000000000000000081526004018080602001828103825260168152602001807f41757468656e7469636174696f6e206661696c6564210000000000000000000081525060200191505060405180910390fd5b5b600080868152602001908152602001600020600101549250505092915050565b60003373ffffffffffffffffffffffffffffffffffffffff16600160003373ffffffffffffffffffffffffffffffffffffffff1673ffffffffffffffffffffffffffffffffffffffff16815260200190815260200160002060010160009054906101000a900473ffffffffffffffffffffffffffffffffffffffff1673ffffffffffffffffffffffffffffffffffffffff161461256e576040517f08c379a000000000000000000000000000000000000000000000000000000000815260040180806020018281038252603881526020018061471b6038913960400191505060405180910390fd5b83837f30000000000000000000000000000000000000000000000000000000000000006005600084815260200190815260200160002054141580156125c6575080600560008481526020019081526020016000205414155b1561264057600061263f576040517f08c379a00000000000000000000000000000000000000000000000000000000081526004018080602001828103825260168152602001807f41757468656e7469636174696f6e206661696c6564210000000000000000000081525060200191505060405180910390fd5b5b8560008088815260200190815260200160002060000154146126ca576040517f08c379a000000000000000000000000000000000000000000000000000000000815260040180806020018281038252601b8152602001807f5468697320637573746f6d657220646f65736e2774206578697473000000000081525060200191505060405180910390fd5b60006126d687876122ac565b905080600080898152602001908152602001600020600101541415612763576040517f08c379a00000000000000000000000000000000000000000000000000000000081526004018080602001828103825260208152602001807f5468697320637573746f6d6572206461746120697320757020746f206461746581525060200191505060405180910390fd5b84600080898152602001908152602001600020600101819055503360008089815260200190815260200160002060030160016101000a81548173ffffffffffffffffffffffffffffffffffffffff021916908373ffffffffffffffffffffffffffffffffffffffff160217905550600080600089815260200190815260200160002060020181905550600080600089815260200190815260200160002060030160006101000a81548160ff021916908360ff16021790555061282487613b17565b156128335761283287613b6d565b5b61283c87613c35565b600193505050509392505050565b60003373ffffffffffffffffffffffffffffffffffffffff16600960009054906101000a900473ffffffffffffffffffffffffffffffffffffffff1673ffffffffffffffffffffffffffffffffffffffff16146128f2576040517f08c379a00000000000000000000000000000000000000000000000000000000081526004018080602001828103825260338152602001806146726033913960400191505060405180910390fd5b8173ffffffffffffffffffffffffffffffffffffffff16600160008473ffffffffffffffffffffffffffffffffffffffff1673ffffffffffffffffffffffffffffffffffffffff16815260200190815260200160002060010160009054906101000a900473ffffffffffffffffffffffffffffffffffffffff1673ffffffffffffffffffffffffffffffffffffffff16146129f5576040517f08c379a00000000000000000000000000000000000000000000000000000000081526004018080602001828103825260138152602001807f42616e6b20646f65736e2774206578697374730000000000000000000000000081525060200191505060405180910390fd5b6129fe82613fcd565b600160008373ffffffffffffffffffffffffffffffffffffffff1673ffffffffffffffffffffffffffffffffffffffff1681526020019081526020016000206000808201600090556001820160006101000a81549073ffffffffffffffffffffffffffffffffffffffff021916905560028201600090556003820160006101000a81549060ff021916905560048201600090555050600460008373ffffffffffffffffffffffffffffffffffffffff1673ffffffffffffffffffffffffffffffffffffffff1681526020019081526020016000206000612ade91906145e5565b600360008373ffffffffffffffffffffffffffffffffffffffff1673ffffffffffffffffffffffffffffffffffffffff1681526020019081526020016000206000612b299190614606565b60019050919050565b60003373ffffffffffffffffffffffffffffffffffffffff16600160003373ffffffffffffffffffffffffffffffffffffffff1673ffffffffffffffffffffffffffffffffffffffff16815260200190815260200160002060010160009054906101000a900473ffffffffffffffffffffffffffffffffffffffff1673ffffffffffffffffffffffffffffffffffffffff1614612c1a576040517f08c379a000000000000000000000000000000000000000000000000000000000815260040180806020018281038252603881526020018061471b6038913960400191505060405180910390fd5b600080838152602001908152602001600020600201549050919050565b60003373ffffffffffffffffffffffffffffffffffffffff16600160003373ffffffffffffffffffffffffffffffffffffffff1673ffffffffffffffffffffffffffffffffffffffff16815260200190815260200160002060010160009054906101000a900473ffffffffffffffffffffffffffffffffffffffff1673ffffffffffffffffffffffffffffffffffffffff1614612d1f576040517f08c379a000000000000000000000000000000000000000000000000000000000815260040180806020018281038252603881526020018061471b6038913960400191505060405180910390fd5b600160008373ffffffffffffffffffffffffffffffffffffffff1673ffffffffffffffffffffffffffffffffffffffff168152602001908152602001600020600201549050919050565b60003373ffffffffffffffffffffffffffffffffffffffff16600160003373ffffffffffffffffffffffffffffffffffffffff1673ffffffffffffffffffffffffffffffffffffffff16815260200190815260200160002060010160009054906101000a900473ffffffffffffffffffffffffffffffffffffffff1673ffffffffffffffffffffffffffffffffffffffff1614612e51576040517f08c379a000000000000000000000000000000000000000000000000000000000815260040180806020018281038252603881526020018061471b6038913960400191505060405180910390fd5b600073ffffffffffffffffffffffffffffffffffffffff1660008085815260200190815260200160002060030160019054906101000a900473ffffffffffffffffffffffffffffffffffffffff1673ffffffffffffffffffffffffffffffffffffffff1614612f0b576040517f08c379a00000000000000000000000000000000000000000000000000000000081526004018080602001828103825260568152602001806147a26056913960600191505060405180910390fd5b82600260008481526020019081526020016000206000015414612f79576040517f08c379a00000000000000000000000000000000000000000000000000000000081526004018080602001828103825260308152602001806146a56030913960400191505060405180910390fd5b600115156002600084815260200190815260200160002060030160009054906101000a900460ff16151514613016576040517f08c379a000000000000000000000000000000000000000000000000000000000815260040180806020018281038252601c8152602001807f4e6f7420616c6c6f77656420746f2061646420637573746f6d6572730000000081525060200191505060405180910390fd5b826000808581526020019081526020016000206000018190555081600080858152602001908152602001600020600101819055503360008085815260200190815260200160002060030160016101000a81548173ffffffffffffffffffffffffffffffffffffffff021916908373ffffffffffffffffffffffffffffffffffffffff160217905550600360003373ffffffffffffffffffffffffffffffffffffffff1673ffffffffffffffffffffffffffffffffffffffff168152602001908152602001600020839080600181540180825580915050600190039060005260206000200160009091909190915055600160008085815260200190815260200160002060030160008282829054906101000a900460ff160192506101000a81548160ff021916908360ff160217905550600680549050606460008086815260200190815260200160002060030160009054906101000a900460ff160260ff168161317b57fe5b046000808581526020019081526020016000206002018190555061319f83836117d8565b507f300000000000000000000000000000000000000000000000000000000000000060056000858152602001908152602001600020819055506001905092915050565b600681815481106131ef57fe5b906000526020600020016000915054906101000a900473ffffffffffffffffffffffffffffffffffffffff1681565b60003373ffffffffffffffffffffffffffffffffffffffff16600160003373ffffffffffffffffffffffffffffffffffffffff1673ffffffffffffffffffffffffffffffffffffffff16815260200190815260200160002060010160009054906101000a900473ffffffffffffffffffffffffffffffffffffffff1673ffffffffffffffffffffffffffffffffffffffff1614613306576040517f08c379a000000000000000000000000000000000000000000000000000000000815260040180806020018281038252603881526020018061471b6038913960400191505060405180910390fd5b8173ffffffffffffffffffffffffffffffffffffffff16600160008473ffffffffffffffffffffffffffffffffffffffff1673ffffffffffffffffffffffffffffffffffffffff16815260200190815260200160002060010160009054906101000a900473ffffffffffffffffffffffffffffffffffffffff1673ffffffffffffffffffffffffffffffffffffffff1614613409576040517f08c379a00000000000000000000000000000000000000000000000000000000081526004018080602001828103825260188152602001807f546869732062616e6b20646f65736e277420657869737473000000000000000081525060200191505060405180910390fd5b8173ffffffffffffffffffffffffffffffffffffffff163373ffffffffffffffffffffffffffffffffffffffff16141561348e576040517f08c379a00000000000000000000000000000000000000000000000000000000081526004018080602001828103825260218152602001806146fa6021913960400191505060405180910390fd5b60008090506000600a54600160008673ffffffffffffffffffffffffffffffffffffffff1673ffffffffffffffffffffffffffffffffffffffff1681526020019081526020016000206002015411905060008090505b600460003373ffffffffffffffffffffffffffffffffffffffff1673ffffffffffffffffffffffffffffffffffffffff1681526020019081526020016000208054905081101561366e578473ffffffffffffffffffffffffffffffffffffffff16600460003373ffffffffffffffffffffffffffffffffffffffff1673ffffffffffffffffffffffffffffffffffffffff168152602001908152602001600020828154811061358f57fe5b9060005260206000200160009054906101000a900473ffffffffffffffffffffffffffffffffffffffff1673ffffffffffffffffffffffffffffffffffffffff161415613661577fb6d4c80e432e3b2f0a7bdebcf6040197f0bd0572e7bb324e126521fa5966657c33604051808273ffffffffffffffffffffffffffffffffffffffff1673ffffffffffffffffffffffffffffffffffffffff16815260200180602001828103825260258152602001806146d5602591396040019250505060405180910390a160009350505050613a52565b80806001019150506134e4565b50600460003373ffffffffffffffffffffffffffffffffffffffff1673ffffffffffffffffffffffffffffffffffffffff168152602001908152602001600020849080600181540180825580915050600190039060005260206000200160009091909190916101000a81548173ffffffffffffffffffffffffffffffffffffffff021916908373ffffffffffffffffffffffffffffffffffffffff16021790555060008090505b6006805490508110156138ac5760008090505b600460006006848154811061373957fe5b9060005260206000200160009054906101000a900473ffffffffffffffffffffffffffffffffffffffff1673ffffffffffffffffffffffffffffffffffffffff1673ffffffffffffffffffffffffffffffffffffffff1681526020019081526020016000208054905081101561389e578573ffffffffffffffffffffffffffffffffffffffff1660046000600685815481106137d157fe5b9060005260206000200160009054906101000a900473ffffffffffffffffffffffffffffffffffffffff1673ffffffffffffffffffffffffffffffffffffffff1673ffffffffffffffffffffffffffffffffffffffff168152602001908152602001600020828154811061384157fe5b9060005260206000200160009054906101000a900473ffffffffffffffffffffffffffffffffffffffff1673ffffffffffffffffffffffffffffffffffffffff1614156138915783806001019450505b8080600101915050613728565b508080600101915050613715565b5060068054905060648302816138be57fe5b04600160008673ffffffffffffffffffffffffffffffffffffffff1673ffffffffffffffffffffffffffffffffffffffff168152602001908152602001600020600201819055506000151581151514801561395c5750600a54600160008673ffffffffffffffffffffffffffffffffffffffff1673ffffffffffffffffffffffffffffffffffffffff16815260200190815260200160002060020154115b15613a4b5760008090505b600880549050811015613a49578473ffffffffffffffffffffffffffffffffffffffff16600260006008848154811061399c57fe5b9060005260206000200154815260200190815260200160002060010160009054906101000a900473ffffffffffffffffffffffffffffffffffffffff1673ffffffffffffffffffffffffffffffffffffffff161415613a3c5760016002600060088481548110613a0857fe5b9060005260206000200154815260200190815260200160002060030160006101000a81548160ff0219169083151502179055505b8080600101915050613967565b505b6001925050505b919050565b60026020528060005260406000206000915090508060000154908060010160009054906101000a900473ffffffffffffffffffffffffffffffffffffffff16908060020154908060030160009054906101000a900460ff16905084565b60006020528060005260406000206000915090508060000154908060010154908060020154908060030160009054906101000a900460ff16908060030160019054906101000a900473ffffffffffffffffffffffffffffffffffffffff16905085565b600080600090505b600780549050811015613b62578260078281548110613b3a57fe5b90600052602060002001541415613b55576001915050613b68565b8080600101915050613b1f565b50600090505b919050565b60008090505b600780549050811015613c28578160078281548110613b8e57fe5b90600052602060002001541415613c1b5760006001820190505b600780549050811015613bf85760078181548110613bc257fe5b906000526020600020015460076001830381548110613bdd57fe5b90600052602060002001819055508080600101915050613ba8565b506007805480613c0457fe5b600190038181906000526020600020016000905590555b8080600101915050613b73565b50613c3281613c35565b50565b60008090505b600680549050811015613fc95760008090505b6003600060068481548110613c5f57fe5b9060005260206000200160009054906101000a900473ffffffffffffffffffffffffffffffffffffffff1673ffffffffffffffffffffffffffffffffffffffff1673ffffffffffffffffffffffffffffffffffffffff16815260200190815260200160002080549050811015613fbb57826003600060068581548110613ce157fe5b9060005260206000200160009054906101000a900473ffffffffffffffffffffffffffffffffffffffff1673ffffffffffffffffffffffffffffffffffffffff1673ffffffffffffffffffffffffffffffffffffffff1681526020019081526020016000208281548110613d5157fe5b90600052602060002001541415613fae5760006001820190505b6003600060068581548110613d7c57fe5b9060005260206000200160009054906101000a900473ffffffffffffffffffffffffffffffffffffffff1673ffffffffffffffffffffffffffffffffffffffff1673ffffffffffffffffffffffffffffffffffffffff16815260200190815260200160002080549050811015613f17576003600060068581548110613dfd57fe5b9060005260206000200160009054906101000a900473ffffffffffffffffffffffffffffffffffffffff1673ffffffffffffffffffffffffffffffffffffffff1673ffffffffffffffffffffffffffffffffffffffff1681526020019081526020016000208181548110613e6d57fe5b90600052602060002001546003600060068681548110613e8957fe5b9060005260206000200160009054906101000a900473ffffffffffffffffffffffffffffffffffffffff1673ffffffffffffffffffffffffffffffffffffffff1673ffffffffffffffffffffffffffffffffffffffff1681526020019081526020016000206001830381548110613efc57fe5b90600052602060002001819055508080600101915050613d6b565b506003600060068481548110613f2957fe5b9060005260206000200160009054906101000a900473ffffffffffffffffffffffffffffffffffffffff1673ffffffffffffffffffffffffffffffffffffffff1673ffffffffffffffffffffffffffffffffffffffff168152602001908152602001600020805480613f9757fe5b600190038181906000526020600020016000905590555b8080600101915050613c4e565b508080600101915050613c3b565b5050565b60008090505b600680549050811015614187578173ffffffffffffffffffffffffffffffffffffffff166006828154811061400457fe5b9060005260206000200160009054906101000a900473ffffffffffffffffffffffffffffffffffffffff1673ffffffffffffffffffffffffffffffffffffffff16141561417a576006818154811061405857fe5b9060005260206000200160006101000a81549073ffffffffffffffffffffffffffffffffffffffff021916905560006001820190505b60068054905081101561413857600681815481106140a857fe5b9060005260206000200160009054906101000a900473ffffffffffffffffffffffffffffffffffffffff16600660018303815481106140e357fe5b9060005260206000200160006101000a81548173ffffffffffffffffffffffffffffffffffffffff021916908373ffffffffffffffffffffffffffffffffffffffff160217905550808060010191505061408e565b50600680548061414457fe5b6001900381819060005260206000200160006101000a81549073ffffffffffffffffffffffffffffffffffffffff021916905590555b8080600101915050613fd3565b5060008090505b6006805490508110156145e15760008090505b60046000600684815481106141b257fe5b9060005260206000200160009054906101000a900473ffffffffffffffffffffffffffffffffffffffff1673ffffffffffffffffffffffffffffffffffffffff1673ffffffffffffffffffffffffffffffffffffffff168152602001908152602001600020805490508110156145d3578273ffffffffffffffffffffffffffffffffffffffff16600460006006858154811061424a57fe5b9060005260206000200160009054906101000a900473ffffffffffffffffffffffffffffffffffffffff1673ffffffffffffffffffffffffffffffffffffffff1673ffffffffffffffffffffffffffffffffffffffff16815260200190815260200160002082815481106142ba57fe5b9060005260206000200160009054906101000a900473ffffffffffffffffffffffffffffffffffffffff1673ffffffffffffffffffffffffffffffffffffffff1614156145c65760006001820190505b600460006006858154811061431b57fe5b9060005260206000200160009054906101000a900473ffffffffffffffffffffffffffffffffffffffff1673ffffffffffffffffffffffffffffffffffffffff1673ffffffffffffffffffffffffffffffffffffffff1681526020019081526020016000208054905081101561451057600460006006858154811061439c57fe5b9060005260206000200160009054906101000a900473ffffffffffffffffffffffffffffffffffffffff1673ffffffffffffffffffffffffffffffffffffffff1673ffffffffffffffffffffffffffffffffffffffff168152602001908152602001600020818154811061440c57fe5b9060005260206000200160009054906101000a900473ffffffffffffffffffffffffffffffffffffffff16600460006006868154811061444857fe5b9060005260206000200160009054906101000a900473ffffffffffffffffffffffffffffffffffffffff1673ffffffffffffffffffffffffffffffffffffffff1673ffffffffffffffffffffffffffffffffffffffff16815260200190815260200160002060018303815481106144bb57fe5b9060005260206000200160006101000a81548173ffffffffffffffffffffffffffffffffffffffff021916908373ffffffffffffffffffffffffffffffffffffffff160217905550808060010191505061430a565b50600460006006848154811061452257fe5b9060005260206000200160009054906101000a900473ffffffffffffffffffffffffffffffffffffffff1673ffffffffffffffffffffffffffffffffffffffff1673ffffffffffffffffffffffffffffffffffffffff16815260200190815260200160002080548061459057fe5b6001900381819060005260206000200160006101000a81549073ffffffffffffffffffffffffffffffffffffffff021916905590555b80806001019150506141a1565b50808060010191505061418e565b5050565b50805460008255906000526020600020908101906146039190614627565b50565b5080546000825590600052602060002090810190614624919061464c565b50565b61464991905b8082111561464557600081600090555060010161462d565b5090565b90565b61466e91905b8082111561466a576000816000905550600101614652565b5090565b9056fe4f6e6c792061646d696e20697320616c6c6f77656420746f206f70657261746520746869732066756e6374696f6e616c697479506c65617365207261697365204b59432072657175657374206265666f726520616464696e6720637573746f6d65727342616e6b2068617320616c726561647920766f74656420666f7220676976656e2062616e6b42616e6b732063616e2774207570766f7465207468656972206f776e2062616e6b556e61757468656e7469636174656420726571756573746f72212042616e6b206e6f74206265656e2061646465642062792061646d696e2e5468697320637573746f6d65722773204b5943207265717565737420646f65736e27742065786973747342616e6b20776974682073616d65206164647265737320616c7265616479206578697374735468697320637573746f6d657220697320616c72656164792070726573656e742c20706c656173652063616c6c206d6f64696679437573746f6d657220746f20656469742074686520637573746f6d6572206461746142616e6b20616c726561647920766f74656420666f72207468697320637573746f6d657254686973207573657220616c7265616479206861732061204b5943207265717565737420776974682073616d65206461746120696e2070726f636573732ea2646970667358221220b5651ce62f79e4659a9930b9e7a67432204b100683f0b2532d41f6114e78f46364736f6c63430006090033",
  "immutableReferences": {},
  "source": "pragma solidity ^0.6.9;\n\ncontract Kyc {\n    // Customer Struct. It defines a customer and validating bank details\n    struct Customer {\n        bytes32 userName;\n        bytes32 dataHash;\n        uint256 rating;\n        uint8 upVotes;\n        address bank;\n    }\n    \n    // Bank Struct. It defines the bank details\n    struct Bank {\n        bytes32 name;\n        address bank;\n        uint256 rating;\n        uint8 kycCount;\n        bytes32 regNumber;\n    }\n    \n    // KycRequest struct. It defines kyc request details of customers\n    struct KycRequest {\n        bytes32 userName;\n        address bank;\n        bytes32 dataHash;\n        bool isAllowed;\n    }\n    \n    // Mappings for custom data types of Customer, Bank and KycRequest\n    mapping(bytes32 => Customer) public customers;\n    mapping(address => Bank) public banks;\n    mapping(bytes32 => KycRequest) public kycRequests;\n    \n    // Mappings to maintain banks to banks and customer votes respectively\n    mapping(address => bytes32[]) internal bankToCustomerVotes;\n    mapping(address => address[]) internal bankToBankVotes;\n    \n    // Mapping to maintain password list of customer to password\n    mapping(bytes32 => bytes32) internal passwordList;\n    \n    // Arrays to maintain bank list, final customers list and customer requests dataHash list \n    address[] public bankList;\n    bytes32[] public finalCustomers;\n    bytes32[] internal customerReqDataList;\n   \n   // State variables to define admin address and minimum acceptable rating for banks and customers \n   address admin;\n   uint minRating;\n   \n   /*\n    * Set admin to one who deploy this contract\n    * Set minRating of 50%\n    */    \n   constructor() public {\n        admin = msg.sender;\n        minRating = (100/2);\n    }\n    \n    // Modifiers\n    \n    // Checks whether the requestor is admin\n    modifier isAdmin {\n        require(admin == msg.sender, \"Only admin is allowed to operate this functionality\");\n        _;\n    }\n    \n    // Checks whether bank has been validated and added by admin\n    modifier isBankValid {\n        require(banks[msg.sender].bank == msg.sender, \"Unauthenticated requestor! Bank not been added by admin.\");\n        _;\n    }\n    \n    // Authenticates the password\n    modifier validatePassword(bytes32 customerName, bytes32 password) {\n        if(passwordList[customerName] != '0' && passwordList[customerName] != password)\n          require(false, 'Authentication failed!');  \n        _;    \n    }\n    \n    // Events\n    event alreadyVoted(address bankAddress, string message);\n    \n    // ----- Bank Interface ----- \n    \n    /*\n        * Records new KYC request for customerName\n        * @param {bytes32} customerName The user name of the customer for whom the request is to be raised\n        * @param {bytes32} customerDataHash  The hash of the data or identification documents provided by the Customer\n        * modifier isBankValid Checks whether bank has been validated and added by admin\n        * @returns {uint8} Returns 1 if the execution is successful, 0 otherwise\n    */\n    function addKycRequest(bytes32  customerName, bytes32 customerDataHash) public isBankValid returns(uint8) {\n        require(kycRequests[customerDataHash].bank == address(0), \"This user already has a KYC request with same data in process.\");\n        \n        kycRequests[customerDataHash].userName = customerName;\n        kycRequests[customerDataHash].dataHash = customerDataHash;\n        kycRequests[customerDataHash].bank = msg.sender;\n        \n        // Initialize isAllowed flag for request based on bank's minimum rating\n        if(banks[msg.sender].rating <= minRating) \n            kycRequests[customerDataHash].isAllowed = false;\n        else\n            kycRequests[customerDataHash].isAllowed = true;\n        \n        // Push customer request data to customerReqDataList array\n        customerReqDataList.push(customerDataHash);\n        \n        banks[msg.sender].kycCount += 1;\n        \n        return 1;\n    }\n    \n    /*\n        * Adds customer to customers mapping\n        * Add the requestor's bank's vote and update the customer rating\n        * @param {bytes32} customerName The user name of the customer for whom the request is made\n        * @param {bytes32} customerDataHash  The hash of the data or identification documents provided by the Customer\n        * modifier isBankValid Checks whether bank has been validated and added by admin\n        * @returns {uint8} Returns 1 if the execution is successful, 0 otherwise\n    */\n    function addCustomer(bytes32 customerName, bytes32 customerDataHash) public isBankValid returns(uint8) {\n        require(customers[customerName].bank == address(0), \"This customer is already present, please call modifyCustomer to edit the customer data\");\n        require(kycRequests[customerDataHash].userName == customerName, \"Please raise KYC request before adding customers\");\n        require(kycRequests[customerDataHash].isAllowed == true, \"Not allowed to add customers\");\n        \n        customers[customerName].userName = customerName;\n        customers[customerName].dataHash = customerDataHash;\n        customers[customerName].bank = msg.sender;\n        \n        // Record bank's vote and update the vote and rating for the customer\n        bankToCustomerVotes[msg.sender].push(customerName);\n        customers[customerName].upVotes += 1;\n        customers[customerName].rating = customers[customerName].upVotes * 100  / bankList.length;\n        \n        // Remove KYC request once the customer is added to the lsit\n        removeKycRequest(customerName, customerDataHash);\n        \n        // Initialize the customer password to '0'. Once customer needs data to be protected, bank can set the password for those customers. \n        passwordList[customerName] = '0';\n        \n        return 1;\n    }\n    \n    /*\n        * Remove KYC request for the customer data\n        * @param {bytes32} customerName The user name of the customer for whom the request is made\n        * @param {bytes32} customerDataHash  The hash of the data or identification documents provided by the Customer\n        * @returns {uint8} Returns 1 if the execution is successful, 0 otherwise\n    */\n    function removeKycRequest(bytes32 customerName, bytes32 customerDataHash) public isBankValid returns(uint8) {\n        require(kycRequests[customerDataHash].userName == customerName, \"This customer's KYC request doesn't exists\");\n        \n        delete kycRequests[customerDataHash];\n        \n        // Remove KYC request from the list\n        // removeKycRequest(customerName, customerDataHash);\n        for(uint i=0; i< customerReqDataList.length; i++){\n            if(customerReqDataList[i] == customerDataHash){\n                for(uint j=i+1; j<customerReqDataList.length; j++){\n                    customerReqDataList[j-1] = customerReqDataList[j];\n                }\n                customerReqDataList.pop();\n                return 1;\n            }\n        }\n\n        return 1;\n    }\n    \n    /*\n        * Remove customer mapping\n        * Remove customer from final customer list\n        * Remove customer's vote given by the banks\n        * Remove customer's password\n        * @param {bytes32} customerName The user name of the customer for whom the request is made\n        * @param {bytes32} customerDataHash  The hash of the data or identification documents provided by the Customer\n        * modifier isBankValid Checks whether bank has been validated and added by admin\n        * @returns {uint8} Returns 1 if the execution is successful, 0 otherwise\n    */\n    function removeCustomer(bytes32 customerName) external isBankValid returns(uint8) {\n         require(customers[customerName].userName == customerName, \"This customer doesn't exits\");\n\n        delete customers[customerName];\n        delete passwordList[customerName];\n        \n        // if customer is present in final customer list then remove customer from the final list and remove the votes given to the customer by the banks\n        if(isCustomerPresent(customerName))\n            removeAcceptedCustomer(customerName);\n        \n        return 1;\n    }\n    \n    /*\n        * View customer dataHash\n        * @param {bytes32} customerName The user name of the customer for whom the request is made\n        * @param {bytes32} password Password for the customer\n        * modifier isBankValid Checks whether bank has been validated and added by admin\n        * @modifier validatePassword Validate if the password is set for customer then its valid\n        * @returns {bytes32} The hash of the data or identification documents of the customer\n    */\n    function viewCustomer(bytes32 customerName, bytes32 password) public view isBankValid validatePassword(customerName, password) returns(bytes32) {\n        return customers[customerName].dataHash; \n    }\n    \n     /*\n        * Allows a bank to cast an upvote for a customer\n        * @param {bytes32} customerName The user name of the customer for whom the request is made\n        * modifier isBankValid Checks whether bank has been validated and added by admin\n        * @returns {uint8} Returns 1 if the execution is successful, 0 otherwise\n    */\n    function upVoteCustomer(bytes32 customerName) public isBankValid returns (uint8) {\n        require(customers[customerName].userName == customerName, \"This customer doesn't exists\");\n        require(banks[msg.sender].bank == msg.sender, \"Unauthenticated requestor! Bank not been added by admin.\");\n        \n        // Check if bank has already voted for a customer\n        for(uint i=0; i< bankToCustomerVotes[msg.sender].length; i++){\n            if(bankToCustomerVotes[msg.sender][i] == customerName){\n                emit alreadyVoted(msg.sender, \"Bank already voted for this customer\");\n                return 0;\n            }\n        }\n        \n        // Add vote to the customer\n        bankToCustomerVotes[msg.sender].push(customerName);\n        \n        // Evaluate customer's vote and rating based on current bank's vote \n        customers[customerName].upVotes += 1;\n        customers[customerName].rating = (customers[customerName].upVotes * 100) / bankList.length;\n        \n        // If customer satisfies minimum rating criteria, add the customer to final customer list \n        if(customers[customerName].rating > minRating) {\n            finalCustomers.push(customerName);\n        }\n            \n        return 1;\n    }\n    \n     /*\n        * Modify customer details\n        * @param {bytes32} customerName The user name of the customer for whom the request is made\n        * @param {bytes32} password Password for the customer\n        * @param {bytes32} customerDataHash  The hash of the data to be updated\n        * modifier isBankValid Checks whether bank has been validated and added by admin\n        * @modifier validatePassword Validate if the password is set for customer then its valid to update the customer details\n        * @returns {uint8} Returns 1 if the execution is successful, 0 otherwise\n    */\n    function modifyCustomerData(bytes32 customerName, bytes32 password, bytes32 dataHash) public isBankValid validatePassword(customerName, password) returns(uint8) {\n        require(customers[customerName].userName == customerName, \"This customer doesn't exits\");\n        \n        // Validate whether same data is present for customer\n        bytes32 savedDataHash = viewCustomer(customerName, password);\n        require(customers[customerName].dataHash != savedDataHash, \"This customer data is up to date\");\n        \n        // Update the customer dataHash and requestor bank\n        customers[customerName].dataHash = dataHash;\n        customers[customerName].bank = msg.sender;\n        \n        // Initialize new data's rating and upvote by banks to 0\n        customers[customerName].rating  = 0;\n        customers[customerName].upVotes = 0;\n\n        // If customer is present in final customer list then remove it.\n        if(isCustomerPresent(customerName))\n            removeAcceptedCustomer(customerName);\n        \n        // Remove all the votes customer got from the bank\n        removeCustomerVotes(customerName);\n        \n        return 1;\n    }\n    \n    /*\n        * Fetch all the requests raised by the bank\n        * @param {address} bankAddress Bank address\n        * modifier isBankValid Checks whether bank has been validated and added by admin\n        * @returns {bytes32[]} Returns all the data hash of customer for which bank has raised a request\n    */\n    function getBankRequests(address bankAddress) public view isBankValid returns(bytes32[] memory) {\n        bytes32[] memory dataList = new bytes32[](customerReqDataList.length); \n        uint8 count = 0;\n\n        // Get all the dataHash of the customer for which bank has raised a request\n        for(uint i=0; i<customerReqDataList.length; i++) {\n            if(kycRequests[customerReqDataList[i]].bank == bankAddress) {\n                dataList[count] = customerReqDataList[i];\n            }\n        }\n        return dataList;\n    }\n    \n        /*\n        * Upvote a bank\n        * @param {address} bankAddress Bank address to be upvoted\n        * modifier isBankValid Checks whether bank has been validated and added by admin\n        * @returns {uint8} Returns 1 if the execution is successful, 0 otherwise\n    */\n    function upVoteBank(address bankAddress) public isBankValid returns(uint8) {\n        require(banks[bankAddress].bank == bankAddress, \"This bank doesn't exists\");\n        require(msg.sender != bankAddress, \"Banks can't upvote their own bank\");\n        \n        uint256 votesCount = 0;\n        bool isTrustedBank = banks[bankAddress].rating > minRating;\n        \n        // Check whether bank as already voted for given bank\n        for(uint i=0; i< bankToBankVotes[msg.sender].length; i++){\n            if(bankToBankVotes[msg.sender][i] == bankAddress){\n                emit alreadyVoted(msg.sender, \"Bank has already voted for given bank\");\n                return 0;\n            }\n        }\n        \n        bankToBankVotes[msg.sender].push(bankAddress);\n        \n        // calculate upvotes for the bank from bankToBankVotes mapping\n        for(uint i=0; i<bankList.length; i++){\n            for(uint j=0; j< bankToBankVotes[bankList[i]].length; j++) {\n                if(bankToBankVotes[bankList[i]][j] == bankAddress)\n                    votesCount++;\n            }\n        }\n        \n        banks[bankAddress].rating = votesCount*100 / bankList.length;\n        \n        // Allow all the requests made by the bank if bank satisfy min criteria. Will run only once for a bank when it just cross min criteria\n        if(isTrustedBank == false && banks[bankAddress].rating > minRating) {\n            for(uint i=0; i<customerReqDataList.length; i++){\n                if(kycRequests[customerReqDataList[i]].bank == bankAddress){\n                    kycRequests[customerReqDataList[i]].isAllowed = true;\n                }\n            }\n        }\n        \n        return 1;\n    }\n\n     /*\n        * Get customer rating\n        * @param {bytes32} customerName The user name of the customer for whom the request is made\n        * modifier isBankValid Checks whether bank has been validated and added by admin\n        * @returns {uint256} Returns the rating for the customer\n    */\n    function getCustomerRating(bytes32 customerName) public view isBankValid returns(uint256) {\n        return customers[customerName].rating;\n    }\n    \n    /*\n        * Get bank rating\n        * @param {address} The address of bank for which the request is made\n        * modifier isBankValid Checks whether bank has been validated and added by admin\n        * @returns {uint256} Returns the rating for the bank\n    */\n    function getBankRating(address bankAddress) public view isBankValid returns (uint256){\n        return banks[bankAddress].rating;\n    }\n    \n    /*\n        * Get bank who has lately updated the customer details\n        * @param {bytes32} customerName The user name of the customer for whom the request is made\n        * modifier isBankValid Checks whether bank has been validated and added by admin\n        * @returns {address} Returns the bank address\n    */\n    function lastUpdatedBy (bytes32 customerName) public view isBankValid returns (address) {\n        return customers[customerName].bank;\n    }\n    \n    /*\n        * Set password for the customer data\n        * @param {bytes32} customerName The user name of the customer for whom the request is made\n        * @param {bytes32 password The password that need to be set for the customer data\n        * modifier isBankValid Checks whether bank has been validated and added by admin\n        * @returns {bool} Returns true if success, false otherwise\n    */\n    function setPassword (bytes32 customerName, bytes32 password) public isBankValid returns (bool) {\n        passwordList[customerName] = password;\n        return true;\n    }\n    \n    /*\n        * Get bank details\n        * @param {address} The address of bank for which the request is made\n        * modifier isBankValid Checks whether bank has been validated and added by admin\n        * @returns {bytes32, address, uint256, uint8, bytes32} Returns bank details\n    */\n    function getBankDetails (address bankAddress) public view isBankValid returns(bytes32, address, uint256, uint8, bytes32) {\n        require(banks[bankAddress].bank == bankAddress, \"Bank doesn't exists\");\n\n        return (banks[bankAddress].name, banks[bankAddress].bank, banks[bankAddress].rating, banks[bankAddress].kycCount, banks[bankAddress].regNumber);\n    }\n\n    // ----- Admin Interface ----- \n\n     /*\n        * Add new bank\n        * @param {bytes32} bankName The name of the bank\n        * @param {address} bankAddress The address of the bankAddress\n        * @param {bytes32} regNumber THe unique registration number of the bank\n        * modifier isAdmin validate if only admin is able to make a request\n        * @returns {bool} Returns true if success, false otherwise\n    */\n    function addBank(bytes32 bankName, address bankAddress, bytes32 regNumber) public returns(bool) {\n         require(banks[bankAddress].bank != bankAddress, \"Bank with same address already exists\");\n         \n         banks[bankAddress].name = bankName;\n         banks[bankAddress].bank = bankAddress;\n         banks[bankAddress].rating = 0;\n         banks[bankAddress].kycCount = 0;\n         banks[bankAddress].regNumber = regNumber;\n         \n         bankList.push(bankAddress);\n         \n         bankToBankVotes[bankAddress].push();\n         bankToCustomerVotes[bankAddress].push();\n         \n         return true;\n    }\n    \n     /*\n        * Remove a bank from the list\n        * @param {address} bankAddress The address of the bankAddress\n        * modifier isAdmin validate if only admin is able to make a request\n        * @returns {bool} Returns true if success, false otherwise\n    */\n    function removeBank(address bankAddress) public isAdmin returns(bool){\n        require(banks[bankAddress].bank == bankAddress, \"Bank doesn't exists\");\n        \n        removeBankFromList(bankAddress);\n        \n        delete banks[bankAddress];\n        delete bankToBankVotes[bankAddress];\n        delete bankToCustomerVotes[bankAddress];\n        \n        return true;\n    }\n    \n    \n    // ----- Helper functions -----\n    \n    // Function to validate if the customer is present in final customer list\n    function isCustomerPresent(bytes32 customerName) internal view returns(bool) {\n        for(uint i=0; i<finalCustomers.length; i++){\n            if(finalCustomers[i] == customerName)\n                return true;\n        }\n        return false;\n    }\n    \n    // Function to remove the customer from final list and associated votes from bank\n    function removeAcceptedCustomer(bytes32 customerName) internal {\n        for(uint index=0; index<finalCustomers.length; index++){\n            if(finalCustomers[index] == customerName){\n                for(uint j=index+1; j<finalCustomers.length; j++){\n                    finalCustomers[j-1] = finalCustomers[j];\n                }\n                finalCustomers.pop();\n            }\n        }\n        removeCustomerVotes(customerName);\n    }\n    \n     // Function to remove customer votes from all the bank\n    function removeCustomerVotes(bytes32 customerName) internal {\n        for(uint i=0; i<bankList.length; i++){\n            for(uint j=0; j<bankToCustomerVotes[bankList[i]].length; j++){\n                if(bankToCustomerVotes[bankList[i]][j] == customerName){\n                    for(uint k=j+1; k<bankToCustomerVotes[bankList[i]].length; k++){\n                        bankToCustomerVotes[bankList[i]][k-1] = bankToCustomerVotes[bankList[i]][k];\n                    }\n                    bankToCustomerVotes[bankList[i]].pop();\n                }\n            }\n        }\n    }\n    \n    // Function to remove bank from the list\n    function removeBankFromList(address bankAddress) internal {\n        for(uint i=0; i<bankList.length; i++){\n            if(bankList[i] == bankAddress) {\n                delete bankList[i];\n                for(uint j=i+1; j<bankList.length; j++){\n                    bankList[j-1] = bankList[j];\n                }\n                bankList.pop();\n            }\n        }\n        \n        // remove bank votes from all the banks\n        for(uint i=0; i<bankList.length; i++){\n            for(uint j=0; j<bankToBankVotes[bankList[i]].length; j++){\n                if(bankToBankVotes[bankList[i]][j] == bankAddress){\n                    for(uint k=j+1; k<bankToBankVotes[bankList[i]].length; k++){\n                        bankToBankVotes[bankList[i]][k-1] = bankToBankVotes[bankList[i]][k];\n                    }\n                    bankToBankVotes[bankList[i]].pop();\n                }\n            }\n        }\n    }\n}",
  "sourcePath": "/Users/ashleshsortee/Desktop/Blockchain/Projects/Upgrad/kyc/contracts/Kyc.sol",
  "compiler": {
    "name": "solc",
    "version": "0.6.9+commit.3e3065ac.Emscripten.clang"
  },
  "schemaVersion": "3.2.0",
  "updatedAt": "2020-06-15T18:15:48.469Z",
  "networkType": "ethereum",
  "devdoc": {
    "methods": {}
  },
  "userdoc": {
    "methods": {}
  }
}