{
  "contractName": "Kyc",
  "abi": [
    {
      "inputs": [],
      "stateMutability": "nonpayable",
      "type": "constructor"
    },
    {
      "anonymous": false,
      "inputs": [
        {
          "indexed": false,
          "internalType": "address",
          "name": "bankAddress",
          "type": "address"
        },
        {
          "indexed": false,
          "internalType": "string",
          "name": "message",
          "type": "string"
        }
      ],
      "name": "alreadyVoted",
      "type": "event"
    },
    {
      "inputs": [
        {
          "internalType": "uint256",
          "name": "",
          "type": "uint256"
        }
      ],
      "name": "bankList",
      "outputs": [
        {
          "internalType": "address",
          "name": "",
          "type": "address"
        }
      ],
      "stateMutability": "view",
      "type": "function",
      "constant": true
    },
    {
      "inputs": [
        {
          "internalType": "address",
          "name": "",
          "type": "address"
        }
      ],
      "name": "banks",
      "outputs": [
        {
          "internalType": "bytes32",
          "name": "name",
          "type": "bytes32"
        },
        {
          "internalType": "address",
          "name": "bank",
          "type": "address"
        },
        {
          "internalType": "uint256",
          "name": "rating",
          "type": "uint256"
        },
        {
          "internalType": "uint8",
          "name": "kycCount",
          "type": "uint8"
        },
        {
          "internalType": "bytes32",
          "name": "regNumber",
          "type": "bytes32"
        }
      ],
      "stateMutability": "view",
      "type": "function",
      "constant": true
    },
    {
      "inputs": [
        {
          "internalType": "bytes32",
          "name": "",
          "type": "bytes32"
        }
      ],
      "name": "customerKycReq",
      "outputs": [
        {
          "internalType": "bytes32",
          "name": "userName",
          "type": "bytes32"
        },
        {
          "internalType": "address",
          "name": "bank",
          "type": "address"
        },
        {
          "internalType": "bytes32",
          "name": "dataHash",
          "type": "bytes32"
        },
        {
          "internalType": "bool",
          "name": "isAllowed",
          "type": "bool"
        }
      ],
      "stateMutability": "view",
      "type": "function",
      "constant": true
    },
    {
      "inputs": [
        {
          "internalType": "uint256",
          "name": "",
          "type": "uint256"
        }
      ],
      "name": "customerReqList",
      "outputs": [
        {
          "internalType": "bytes32",
          "name": "",
          "type": "bytes32"
        }
      ],
      "stateMutability": "view",
      "type": "function",
      "constant": true
    },
    {
      "inputs": [
        {
          "internalType": "uint256",
          "name": "",
          "type": "uint256"
        }
      ],
      "name": "customerVerificationList",
      "outputs": [
        {
          "internalType": "bytes32",
          "name": "",
          "type": "bytes32"
        }
      ],
      "stateMutability": "view",
      "type": "function",
      "constant": true
    },
    {
      "inputs": [
        {
          "internalType": "bytes32",
          "name": "",
          "type": "bytes32"
        }
      ],
      "name": "customers",
      "outputs": [
        {
          "internalType": "bytes32",
          "name": "userName",
          "type": "bytes32"
        },
        {
          "internalType": "bytes32",
          "name": "dataHash",
          "type": "bytes32"
        },
        {
          "internalType": "uint256",
          "name": "rating",
          "type": "uint256"
        },
        {
          "internalType": "uint8",
          "name": "upVotes",
          "type": "uint8"
        },
        {
          "internalType": "address",
          "name": "bank",
          "type": "address"
        }
      ],
      "stateMutability": "view",
      "type": "function",
      "constant": true
    },
    {
      "inputs": [
        {
          "internalType": "uint256",
          "name": "",
          "type": "uint256"
        }
      ],
      "name": "finalCustomers",
      "outputs": [
        {
          "internalType": "bytes32",
          "name": "",
          "type": "bytes32"
        }
      ],
      "stateMutability": "view",
      "type": "function",
      "constant": true
    },
    {
      "inputs": [
        {
          "internalType": "bytes32",
          "name": "",
          "type": "bytes32"
        }
      ],
      "name": "kycRequests",
      "outputs": [
        {
          "internalType": "bytes32",
          "name": "userName",
          "type": "bytes32"
        },
        {
          "internalType": "address",
          "name": "bank",
          "type": "address"
        },
        {
          "internalType": "bytes32",
          "name": "dataHash",
          "type": "bytes32"
        },
        {
          "internalType": "bool",
          "name": "isAllowed",
          "type": "bool"
        }
      ],
      "stateMutability": "view",
      "type": "function",
      "constant": true
    },
    {
      "inputs": [
        {
          "internalType": "bytes32",
          "name": "customerName",
          "type": "bytes32"
        },
        {
          "internalType": "bytes32",
          "name": "customerDataHash",
          "type": "bytes32"
        }
      ],
      "name": "addKycRequest",
      "outputs": [
        {
          "internalType": "uint8",
          "name": "",
          "type": "uint8"
        }
      ],
      "stateMutability": "nonpayable",
      "type": "function"
    },
    {
      "inputs": [
        {
          "internalType": "bytes32",
          "name": "customerName",
          "type": "bytes32"
        },
        {
          "internalType": "bytes32",
          "name": "customerDataHash",
          "type": "bytes32"
        }
      ],
      "name": "addCustomer",
      "outputs": [
        {
          "internalType": "uint8",
          "name": "",
          "type": "uint8"
        }
      ],
      "stateMutability": "nonpayable",
      "type": "function"
    },
    {
      "inputs": [
        {
          "internalType": "bytes32",
          "name": "customerName",
          "type": "bytes32"
        },
        {
          "internalType": "bytes32",
          "name": "customerDataHash",
          "type": "bytes32"
        }
      ],
      "name": "removeKycRequest",
      "outputs": [
        {
          "internalType": "uint8",
          "name": "",
          "type": "uint8"
        }
      ],
      "stateMutability": "nonpayable",
      "type": "function"
    },
    {
      "inputs": [
        {
          "internalType": "bytes32",
          "name": "customerName",
          "type": "bytes32"
        }
      ],
      "name": "removeCustomer",
      "outputs": [
        {
          "internalType": "uint8",
          "name": "",
          "type": "uint8"
        }
      ],
      "stateMutability": "nonpayable",
      "type": "function"
    },
    {
      "inputs": [
        {
          "internalType": "bytes32",
          "name": "customerName",
          "type": "bytes32"
        },
        {
          "internalType": "bytes32",
          "name": "password",
          "type": "bytes32"
        }
      ],
      "name": "viewCustomer",
      "outputs": [
        {
          "internalType": "bytes32",
          "name": "",
          "type": "bytes32"
        }
      ],
      "stateMutability": "view",
      "type": "function",
      "constant": true
    },
    {
      "inputs": [
        {
          "internalType": "bytes32",
          "name": "customerName",
          "type": "bytes32"
        }
      ],
      "name": "viewCustomerDetails",
      "outputs": [
        {
          "internalType": "bytes32",
          "name": "",
          "type": "bytes32"
        },
        {
          "internalType": "address",
          "name": "",
          "type": "address"
        },
        {
          "internalType": "bytes32",
          "name": "",
          "type": "bytes32"
        },
        {
          "internalType": "bool",
          "name": "",
          "type": "bool"
        }
      ],
      "stateMutability": "view",
      "type": "function",
      "constant": true
    },
    {
      "inputs": [
        {
          "internalType": "bytes32",
          "name": "customerName",
          "type": "bytes32"
        }
      ],
      "name": "viewPedingCustomerDetails",
      "outputs": [
        {
          "internalType": "bytes32",
          "name": "",
          "type": "bytes32"
        },
        {
          "internalType": "bytes32",
          "name": "",
          "type": "bytes32"
        },
        {
          "internalType": "uint256",
          "name": "",
          "type": "uint256"
        },
        {
          "internalType": "uint8",
          "name": "",
          "type": "uint8"
        },
        {
          "internalType": "address",
          "name": "",
          "type": "address"
        },
        {
          "internalType": "bool",
          "name": "",
          "type": "bool"
        }
      ],
      "stateMutability": "view",
      "type": "function",
      "constant": true
    },
    {
      "inputs": [
        {
          "internalType": "address",
          "name": "bankAddress",
          "type": "address"
        }
      ],
      "name": "getRequestedCustomers",
      "outputs": [
        {
          "internalType": "bytes32[]",
          "name": "",
          "type": "bytes32[]"
        }
      ],
      "stateMutability": "view",
      "type": "function",
      "constant": true
    },
    {
      "inputs": [],
      "name": "getPendingCustomers",
      "outputs": [
        {
          "internalType": "bytes32[]",
          "name": "",
          "type": "bytes32[]"
        }
      ],
      "stateMutability": "view",
      "type": "function",
      "constant": true
    },
    {
      "inputs": [],
      "name": "getVerifiedCustomers",
      "outputs": [
        {
          "internalType": "bytes32[]",
          "name": "",
          "type": "bytes32[]"
        }
      ],
      "stateMutability": "view",
      "type": "function",
      "constant": true
    },
    {
      "inputs": [],
      "name": "getAllBanks",
      "outputs": [
        {
          "internalType": "address[]",
          "name": "",
          "type": "address[]"
        }
      ],
      "stateMutability": "view",
      "type": "function",
      "constant": true
    },
    {
      "inputs": [
        {
          "internalType": "bytes32",
          "name": "customerName",
          "type": "bytes32"
        }
      ],
      "name": "upVoteCustomer",
      "outputs": [
        {
          "internalType": "uint8",
          "name": "",
          "type": "uint8"
        }
      ],
      "stateMutability": "nonpayable",
      "type": "function"
    },
    {
      "inputs": [
        {
          "internalType": "bytes32",
          "name": "customerName",
          "type": "bytes32"
        },
        {
          "internalType": "bytes32",
          "name": "password",
          "type": "bytes32"
        },
        {
          "internalType": "bytes32",
          "name": "dataHash",
          "type": "bytes32"
        }
      ],
      "name": "modifyCustomerData",
      "outputs": [
        {
          "internalType": "uint8",
          "name": "",
          "type": "uint8"
        }
      ],
      "stateMutability": "nonpayable",
      "type": "function"
    },
    {
      "inputs": [
        {
          "internalType": "address",
          "name": "bankAddress",
          "type": "address"
        }
      ],
      "name": "getBankRequests",
      "outputs": [
        {
          "internalType": "bytes32[]",
          "name": "",
          "type": "bytes32[]"
        }
      ],
      "stateMutability": "view",
      "type": "function",
      "constant": true
    },
    {
      "inputs": [
        {
          "internalType": "address",
          "name": "bankAddress",
          "type": "address"
        }
      ],
      "name": "upVoteBank",
      "outputs": [
        {
          "internalType": "uint8",
          "name": "",
          "type": "uint8"
        }
      ],
      "stateMutability": "nonpayable",
      "type": "function"
    },
    {
      "inputs": [
        {
          "internalType": "bytes32",
          "name": "customerName",
          "type": "bytes32"
        }
      ],
      "name": "getCustomerRating",
      "outputs": [
        {
          "internalType": "uint256",
          "name": "",
          "type": "uint256"
        }
      ],
      "stateMutability": "view",
      "type": "function",
      "constant": true
    },
    {
      "inputs": [
        {
          "internalType": "address",
          "name": "bankAddress",
          "type": "address"
        }
      ],
      "name": "getBankRating",
      "outputs": [
        {
          "internalType": "uint256",
          "name": "",
          "type": "uint256"
        }
      ],
      "stateMutability": "view",
      "type": "function",
      "constant": true
    },
    {
      "inputs": [
        {
          "internalType": "bytes32",
          "name": "customerName",
          "type": "bytes32"
        }
      ],
      "name": "lastUpdatedBy",
      "outputs": [
        {
          "internalType": "address",
          "name": "",
          "type": "address"
        }
      ],
      "stateMutability": "view",
      "type": "function",
      "constant": true
    },
    {
      "inputs": [
        {
          "internalType": "bytes32",
          "name": "customerName",
          "type": "bytes32"
        },
        {
          "internalType": "bytes32",
          "name": "password",
          "type": "bytes32"
        }
      ],
      "name": "setPassword",
      "outputs": [
        {
          "internalType": "bool",
          "name": "",
          "type": "bool"
        }
      ],
      "stateMutability": "nonpayable",
      "type": "function"
    },
    {
      "inputs": [
        {
          "internalType": "address",
          "name": "bankAddress",
          "type": "address"
        }
      ],
      "name": "getBankDetails",
      "outputs": [
        {
          "internalType": "bytes32",
          "name": "",
          "type": "bytes32"
        },
        {
          "internalType": "address",
          "name": "",
          "type": "address"
        },
        {
          "internalType": "uint256",
          "name": "",
          "type": "uint256"
        },
        {
          "internalType": "uint8",
          "name": "",
          "type": "uint8"
        },
        {
          "internalType": "bytes32",
          "name": "",
          "type": "bytes32"
        }
      ],
      "stateMutability": "view",
      "type": "function",
      "constant": true
    },
    {
      "inputs": [
        {
          "internalType": "bytes32",
          "name": "bankName",
          "type": "bytes32"
        },
        {
          "internalType": "address",
          "name": "bankAddress",
          "type": "address"
        },
        {
          "internalType": "bytes32",
          "name": "regNumber",
          "type": "bytes32"
        }
      ],
      "name": "addBank",
      "outputs": [
        {
          "internalType": "bool",
          "name": "",
          "type": "bool"
        }
      ],
      "stateMutability": "nonpayable",
      "type": "function"
    },
    {
      "inputs": [
        {
          "internalType": "address",
          "name": "bankAddress",
          "type": "address"
        }
      ],
      "name": "removeBank",
      "outputs": [
        {
          "internalType": "bool",
          "name": "",
          "type": "bool"
        }
      ],
      "stateMutability": "nonpayable",
      "type": "function"
    }
  ],
  "bytecode": "0x608060405234801561001057600080fd5b5033600c60006101000a81548173ffffffffffffffffffffffffffffffffffffffff021916908373ffffffffffffffffffffffffffffffffffffffff1602179055506032600d819055506156af806200006a6000396000f3fe608060405234801561001057600080fd5b50600436106101da5760003560e01c80638a7221cb11610104578063b8144a72116100a2578063d342959b11610071578063d342959b14610c2c578063d4b40e5414610cb3578063e12a157b14610cf5578063ea84119814610d8e576101da565b8063b8144a7214610ab6578063c9091acc14610b0e578063cba49c2114610b60578063ccb6b0d214610bce576101da565b8063951c8a07116100de578063951c8a071461091e5780639649650c1461097d5780639da0df91146109d9578063b1d4e35514610a74576101da565b80638a7221cb1461083457806392a67c5914610880578063933724d6146108dc576101da565b806356fb2ba71161017c578063628e09ad1161014b578063628e09ad1461062c57806380c3b8c2146106c55780638699bc401461076b5780638730ef97146107ad576101da565b806356fb2ba7146104ca57806358fc3c3c1461051c5780635cc4a4771461056c5780636272c418146105be576101da565b80632e69f18f116101b85780632e69f18f1461033d578063306bca811461039c5780634491bf5e146104235780634ab867dc1461046b576101da565b806306aecb8c146101df578063130d70cd1461024f57806315101e0214610297575b600080fd5b610235600480360360608110156101f557600080fd5b8101908080359060200190929190803573ffffffffffffffffffffffffffffffffffffffff16906020019092919080359060200190929190505050610e1e565b604051808215151515815260200191505060405180910390f35b61027b6004803603602081101561026557600080fd5b810190808035906020019092919050505061128d565b604051808260ff1660ff16815260200191505060405180910390f35b6102d9600480360360208110156102ad57600080fd5b81019080803573ffffffffffffffffffffffffffffffffffffffff169060200190929190505050611772565b604051808681526020018573ffffffffffffffffffffffffffffffffffffffff1673ffffffffffffffffffffffffffffffffffffffff1681526020018481526020018360ff1660ff1681526020018281526020019550505050505060405180910390f35b610345611a0c565b6040518080602001828103825283818151815260200191508051906020019060200280838360005b8381101561038857808201518184015260208101905061036d565b505050509050019250505060405180910390f35b6103c8600480360360208110156103b257600080fd5b8101908080359060200190929190505050611a64565b604051808581526020018473ffffffffffffffffffffffffffffffffffffffff1673ffffffffffffffffffffffffffffffffffffffff1681526020018381526020018215151515815260200194505050505060405180910390f35b61044f6004803603602081101561043957600080fd5b8101908080359060200190929190505050611c04565b604051808260ff1660ff16815260200191505060405180910390f35b610473611e16565b6040518080602001828103825283818151815260200191508051906020019060200280838360005b838110156104b657808201518184015260208101905061049b565b505050509050019250505060405180910390f35b610500600480360360408110156104e057600080fd5b810190808035906020019092919080359060200190929190505050611fca565b604051808260ff1660ff16815260200191505060405180910390f35b6105526004803603604081101561053257600080fd5b810190808035906020019092919080359060200190929190505050612251565b604051808215151515815260200191505060405180910390f35b6105a26004803603604081101561058257600080fd5b81019080803590602001909291908035906020019092919050505061235b565b604051808260ff1660ff16815260200191505060405180910390f35b6105ea600480360360208110156105d457600080fd5b810190808035906020019092919050505061278c565b604051808273ffffffffffffffffffffffffffffffffffffffff1673ffffffffffffffffffffffffffffffffffffffff16815260200191505060405180910390f35b61066e6004803603602081101561064257600080fd5b81019080803573ffffffffffffffffffffffffffffffffffffffff1690602001909291905050506128b1565b6040518080602001828103825283818151815260200191508051906020019060200280838360005b838110156106b1578082015181840152602081019050610696565b505050509050019250505060405180910390f35b610707600480360360208110156106db57600080fd5b81019080803573ffffffffffffffffffffffffffffffffffffffff169060200190929190505050612ad4565b604051808681526020018573ffffffffffffffffffffffffffffffffffffffff1673ffffffffffffffffffffffffffffffffffffffff1681526020018481526020018360ff1660ff1681526020018281526020019550505050505060405180910390f35b6107976004803603602081101561078157600080fd5b8101908080359060200190929190505050612b37565b6040518082815260200191505060405180910390f35b6107d9600480360360208110156107c357600080fd5b8101908080359060200190929190505050612b58565b604051808581526020018473ffffffffffffffffffffffffffffffffffffffff1673ffffffffffffffffffffffffffffffffffffffff1681526020018381526020018215151515815260200194505050505060405180910390f35b61086a6004803603604081101561084a57600080fd5b810190808035906020019092919080359060200190929190505050612bb5565b6040518082815260200191505060405180910390f35b6108c06004803603606081101561089657600080fd5b81019080803590602001909291908035906020019092919080359060200190929190505050612d48565b604051808260ff1660ff16815260200191505060405180910390f35b610908600480360360208110156108f257600080fd5b81019080803590602001909291905050506130c5565b6040518082815260200191505060405180910390f35b6109266130e6565b6040518080602001828103825283818151815260200191508051906020019060200280838360005b8381101561096957808201518184015260208101905061094e565b505050509050019250505060405180910390f35b6109bf6004803603602081101561099357600080fd5b81019080803573ffffffffffffffffffffffffffffffffffffffff169060200190929190505050613174565b604051808215151515815260200191505060405180910390f35b610a05600480360360208110156109ef57600080fd5b810190808035906020019092919050505061345c565b604051808781526020018681526020018581526020018460ff1660ff1681526020018373ffffffffffffffffffffffffffffffffffffffff1673ffffffffffffffffffffffffffffffffffffffff16815260200182151515158152602001965050505050505060405180910390f35b610aa060048036036020811015610a8a57600080fd5b81019080803590602001909291905050506136cb565b6040518082815260200191505060405180910390f35b610af860048036036020811015610acc57600080fd5b81019080803573ffffffffffffffffffffffffffffffffffffffff1690602001909291905050506137d0565b6040518082815260200191505060405180910390f35b610b4460048036036040811015610b2457600080fd5b810190808035906020019092919080359060200190929190505050613902565b604051808260ff1660ff16815260200191505060405180910390f35b610b8c60048036036020811015610b7657600080fd5b8101908080359060200190929190505050613da4565b604051808273ffffffffffffffffffffffffffffffffffffffff1673ffffffffffffffffffffffffffffffffffffffff16815260200191505060405180910390f35b610c1060048036036020811015610be457600080fd5b81019080803573ffffffffffffffffffffffffffffffffffffffff169060200190929190505050613de0565b604051808260ff1660ff16815260200191505060405180910390f35b610c5860048036036020811015610c4257600080fd5b8101908080359060200190929190505050614619565b604051808581526020018473ffffffffffffffffffffffffffffffffffffffff1673ffffffffffffffffffffffffffffffffffffffff1681526020018381526020018215151515815260200194505050505060405180910390f35b610cdf60048036036020811015610cc957600080fd5b8101908080359060200190929190505050614676565b6040518082815260200191505060405180910390f35b610d3760048036036020811015610d0b57600080fd5b81019080803573ffffffffffffffffffffffffffffffffffffffff169060200190929190505050614697565b6040518080602001828103825283818151815260200191508051906020019060200280838360005b83811015610d7a578082015181840152602081019050610d5f565b505050509050019250505060405180910390f35b610dba60048036036020811015610da457600080fd5b81019080803590602001909291905050506148d0565b604051808681526020018581526020018481526020018360ff1660ff1681526020018273ffffffffffffffffffffffffffffffffffffffff1673ffffffffffffffffffffffffffffffffffffffff1681526020019550505050505060405180910390f35b60003373ffffffffffffffffffffffffffffffffffffffff16600c60009054906101000a900473ffffffffffffffffffffffffffffffffffffffff1673ffffffffffffffffffffffffffffffffffffffff1614610ec6576040517f08c379a000000000000000000000000000000000000000000000000000000000815260040180806020018281038252603381526020018061548e6033913960400191505060405180910390fd5b8273ffffffffffffffffffffffffffffffffffffffff16600160008573ffffffffffffffffffffffffffffffffffffffff1673ffffffffffffffffffffffffffffffffffffffff16815260200190815260200160002060010160009054906101000a900473ffffffffffffffffffffffffffffffffffffffff1673ffffffffffffffffffffffffffffffffffffffff161415610fad576040517f08c379a000000000000000000000000000000000000000000000000000000000815260040180806020018281038252602581526020018061559d6025913960400191505060405180910390fd5b83600160008573ffffffffffffffffffffffffffffffffffffffff1673ffffffffffffffffffffffffffffffffffffffff1681526020019081526020016000206000018190555082600160008573ffffffffffffffffffffffffffffffffffffffff1673ffffffffffffffffffffffffffffffffffffffff16815260200190815260200160002060010160006101000a81548173ffffffffffffffffffffffffffffffffffffffff021916908373ffffffffffffffffffffffffffffffffffffffff1602179055506000600160008573ffffffffffffffffffffffffffffffffffffffff1673ffffffffffffffffffffffffffffffffffffffff168152602001908152602001600020600201819055506000600160008573ffffffffffffffffffffffffffffffffffffffff1673ffffffffffffffffffffffffffffffffffffffff16815260200190815260200160002060030160006101000a81548160ff021916908360ff16021790555081600160008573ffffffffffffffffffffffffffffffffffffffff1673ffffffffffffffffffffffffffffffffffffffff168152602001908152602001600020600401819055506007839080600181540180825580915050600190039060005260206000200160009091909190916101000a81548173ffffffffffffffffffffffffffffffffffffffff021916908373ffffffffffffffffffffffffffffffffffffffff160217905550600560008473ffffffffffffffffffffffffffffffffffffffff1673ffffffffffffffffffffffffffffffffffffffff168152602001908152602001600020600181600181540180825580915050039060005260206000200160009054906101000a905050600460008473ffffffffffffffffffffffffffffffffffffffff1673ffffffffffffffffffffffffffffffffffffffff168152602001908152602001600020600181600181540180825580915050039060005260206000205050600190509392505050565b60003373ffffffffffffffffffffffffffffffffffffffff16600160003373ffffffffffffffffffffffffffffffffffffffff1673ffffffffffffffffffffffffffffffffffffffff16815260200190815260200160002060010160009054906101000a900473ffffffffffffffffffffffffffffffffffffffff1673ffffffffffffffffffffffffffffffffffffffff1614611375576040517f08c379a00000000000000000000000000000000000000000000000000000000081526004018080602001828103825260388152602001806155126038913960400191505060405180910390fd5b8160008084815260200190815260200160002060000154146113ff576040517f08c379a000000000000000000000000000000000000000000000000000000000815260040180806020018281038252601c8152602001807f5468697320637573746f6d657220646f65736e2774206578697374730000000081525060200191505060405180910390fd5b3373ffffffffffffffffffffffffffffffffffffffff16600160003373ffffffffffffffffffffffffffffffffffffffff1673ffffffffffffffffffffffffffffffffffffffff16815260200190815260200160002060010160009054906101000a900473ffffffffffffffffffffffffffffffffffffffff1673ffffffffffffffffffffffffffffffffffffffff16146114e5576040517f08c379a00000000000000000000000000000000000000000000000000000000081526004018080602001828103825260388152602001806155126038913960400191505060405180910390fd5b60008090505b600460003373ffffffffffffffffffffffffffffffffffffffff1673ffffffffffffffffffffffffffffffffffffffff168152602001908152602001600020805490508110156116275782600460003373ffffffffffffffffffffffffffffffffffffffff1673ffffffffffffffffffffffffffffffffffffffff168152602001908152602001600020828154811061158057fe5b9060005260206000200154141561161a577fb6d4c80e432e3b2f0a7bdebcf6040197f0bd0572e7bb324e126521fa5966657c33604051808273ffffffffffffffffffffffffffffffffffffffff1673ffffffffffffffffffffffffffffffffffffffff1681526020018060200182810382526024815260200180615618602491396040019250505060405180910390a1600091505061176d565b80806001019150506114eb565b50600460003373ffffffffffffffffffffffffffffffffffffffff1673ffffffffffffffffffffffffffffffffffffffff168152602001908152602001600020829080600181540180825580915050600190039060005260206000200160009091909190915055600160008084815260200190815260200160002060030160008282829054906101000a900460ff160192506101000a81548160ff021916908360ff160217905550600780549050606460008085815260200190815260200160002060030160009054906101000a900460ff160260ff168161170557fe5b0460008084815260200190815260200160002060020181905550600d546000808481526020019081526020016000206002015411156117685760088290806001815401808255809150506001900390600052602060002001600090919091909150555b600190505b919050565b60008060008060008573ffffffffffffffffffffffffffffffffffffffff16600160008873ffffffffffffffffffffffffffffffffffffffff1673ffffffffffffffffffffffffffffffffffffffff16815260200190815260200160002060010160009054906101000a900473ffffffffffffffffffffffffffffffffffffffff1673ffffffffffffffffffffffffffffffffffffffff161461187d576040517f08c379a00000000000000000000000000000000000000000000000000000000081526004018080602001828103825260138152602001807f42616e6b20646f65736e2774206578697374730000000000000000000000000081525060200191505060405180910390fd5b600160008773ffffffffffffffffffffffffffffffffffffffff1673ffffffffffffffffffffffffffffffffffffffff16815260200190815260200160002060000154600160008873ffffffffffffffffffffffffffffffffffffffff1673ffffffffffffffffffffffffffffffffffffffff16815260200190815260200160002060010160009054906101000a900473ffffffffffffffffffffffffffffffffffffffff16600160008973ffffffffffffffffffffffffffffffffffffffff1673ffffffffffffffffffffffffffffffffffffffff16815260200190815260200160002060020154600160008a73ffffffffffffffffffffffffffffffffffffffff1673ffffffffffffffffffffffffffffffffffffffff16815260200190815260200160002060030160009054906101000a900460ff16600160008b73ffffffffffffffffffffffffffffffffffffffff1673ffffffffffffffffffffffffffffffffffffffff168152602001908152602001600020600401549450945094509450945091939590929450565b60606008805480602002602001604051908101604052809291908181526020018280548015611a5a57602002820191906000526020600020905b815481526020019060010190808311611a46575b5050505050905090565b6000806000803373ffffffffffffffffffffffffffffffffffffffff16600160003373ffffffffffffffffffffffffffffffffffffffff1673ffffffffffffffffffffffffffffffffffffffff16815260200190815260200160002060010160009054906101000a900473ffffffffffffffffffffffffffffffffffffffff1673ffffffffffffffffffffffffffffffffffffffff1614611b50576040517f08c379a00000000000000000000000000000000000000000000000000000000081526004018080602001828103825260388152602001806155126038913960400191505060405180910390fd5b60006003600087815260200190815260200160002060020154905060026000828152602001908152602001600020600001546002600083815260200190815260200160002060010160009054906101000a900473ffffffffffffffffffffffffffffffffffffffff1660026000848152602001908152602001600020600201546002600085815260200190815260200160002060030160009054906101000a900460ff169450945094509450509193509193565b60003373ffffffffffffffffffffffffffffffffffffffff16600160003373ffffffffffffffffffffffffffffffffffffffff1673ffffffffffffffffffffffffffffffffffffffff16815260200190815260200160002060010160009054906101000a900473ffffffffffffffffffffffffffffffffffffffff1673ffffffffffffffffffffffffffffffffffffffff1614611cec576040517f08c379a00000000000000000000000000000000000000000000000000000000081526004018080602001828103825260388152602001806155126038913960400191505060405180910390fd5b816000808481526020019081526020016000206000015414611d76576040517f08c379a000000000000000000000000000000000000000000000000000000000815260040180806020018281038252601b8152602001807f5468697320637573746f6d657220646f65736e2774206578697473000000000081525060200191505060405180910390fd5b600080838152602001908152602001600020600080820160009055600182016000905560028201600090556003820160006101000a81549060ff02191690556003820160016101000a81549073ffffffffffffffffffffffffffffffffffffffff021916905550506006600083815260200190815260200160002060009055611dfe82614933565b15611e0d57611e0c82614989565b5b60019050919050565b60603373ffffffffffffffffffffffffffffffffffffffff16600160003373ffffffffffffffffffffffffffffffffffffffff1673ffffffffffffffffffffffffffffffffffffffff16815260200190815260200160002060010160009054906101000a900473ffffffffffffffffffffffffffffffffffffffff1673ffffffffffffffffffffffffffffffffffffffff1614611efe576040517f08c379a00000000000000000000000000000000000000000000000000000000081526004018080602001828103825260388152602001806155126038913960400191505060405180910390fd5b6060600b8054905067ffffffffffffffff81118015611f1c57600080fd5b50604051908082528060200260200182016040528015611f4b5781602001602082028036833780820191505090505b509050600080905060008090505b600b80549050811015611fc157600080600b8381548110611f7657fe5b9060005260206000200154815260200190815260200160002060000154838360ff1681518110611fa257fe5b6020026020010181815250506001820191508080600101915050611f59565b50819250505090565b60003373ffffffffffffffffffffffffffffffffffffffff16600160003373ffffffffffffffffffffffffffffffffffffffff1673ffffffffffffffffffffffffffffffffffffffff16815260200190815260200160002060010160009054906101000a900473ffffffffffffffffffffffffffffffffffffffff1673ffffffffffffffffffffffffffffffffffffffff16146120b2576040517f08c379a00000000000000000000000000000000000000000000000000000000081526004018080602001828103825260388152602001806155126038913960400191505060405180910390fd5b82600260008481526020019081526020016000206000015414612120576040517f08c379a000000000000000000000000000000000000000000000000000000000815260040180806020018281038252602a815260200180615573602a913960400191505060405180910390fd5b600260008381526020019081526020016000206000808201600090556001820160006101000a81549073ffffffffffffffffffffffffffffffffffffffff021916905560028201600090556003820160006101000a81549060ff0219169055505060008090505b6009805490508110156122455782600982815481106121a257fe5b906000526020600020015414156122385760006001820190505b60098054905081101561220c57600981815481106121d657fe5b9060005260206000200154600960018303815481106121f157fe5b906000526020600020018190555080806001019150506121bc565b50600980548061221857fe5b60019003818190600052602060002001600090559055600191505061224b565b8080600101915050612187565b50600190505b92915050565b60003373ffffffffffffffffffffffffffffffffffffffff16600160003373ffffffffffffffffffffffffffffffffffffffff1673ffffffffffffffffffffffffffffffffffffffff16815260200190815260200160002060010160009054906101000a900473ffffffffffffffffffffffffffffffffffffffff1673ffffffffffffffffffffffffffffffffffffffff1614612339576040517f08c379a00000000000000000000000000000000000000000000000000000000081526004018080602001828103825260388152602001806155126038913960400191505060405180910390fd5b8160066000858152602001908152602001600020819055506001905092915050565b60003373ffffffffffffffffffffffffffffffffffffffff16600160003373ffffffffffffffffffffffffffffffffffffffff1673ffffffffffffffffffffffffffffffffffffffff16815260200190815260200160002060010160009054906101000a900473ffffffffffffffffffffffffffffffffffffffff1673ffffffffffffffffffffffffffffffffffffffff1614612443576040517f08c379a00000000000000000000000000000000000000000000000000000000081526004018080602001828103825260388152602001806155126038913960400191505060405180910390fd5b600073ffffffffffffffffffffffffffffffffffffffff166002600084815260200190815260200160002060010160009054906101000a900473ffffffffffffffffffffffffffffffffffffffff1673ffffffffffffffffffffffffffffffffffffffff16146124fe576040517f08c379a000000000000000000000000000000000000000000000000000000000815260040180806020018281038252603e81526020018061563c603e913960400191505060405180910390fd5b826002600084815260200190815260200160002060000181905550816002600084815260200190815260200160002060020181905550336002600084815260200190815260200160002060010160006101000a81548173ffffffffffffffffffffffffffffffffffffffff021916908373ffffffffffffffffffffffffffffffffffffffff160217905550600d54600160003373ffffffffffffffffffffffffffffffffffffffff1673ffffffffffffffffffffffffffffffffffffffff16815260200190815260200160002060020154116126085760006002600084815260200190815260200160002060030160006101000a81548160ff021916908315150217905550612638565b60016002600084815260200190815260200160002060030160006101000a81548160ff0219169083151502179055505b6009829080600181540180825580915050600190039060005260206000200160009091909190915055600a83908060018154018082558091505060019003906000526020600020016000909190919091505560018060003373ffffffffffffffffffffffffffffffffffffffff1673ffffffffffffffffffffffffffffffffffffffff16815260200190815260200160002060030160008282829054906101000a900460ff160192506101000a81548160ff021916908360ff160217905550826003600085815260200190815260200160002060000181905550816003600085815260200190815260200160002060020181905550336003600085815260200190815260200160002060010160006101000a81548173ffffffffffffffffffffffffffffffffffffffff021916908373ffffffffffffffffffffffffffffffffffffffff1602179055506001905092915050565b60003373ffffffffffffffffffffffffffffffffffffffff16600160003373ffffffffffffffffffffffffffffffffffffffff1673ffffffffffffffffffffffffffffffffffffffff16815260200190815260200160002060010160009054906101000a900473ffffffffffffffffffffffffffffffffffffffff1673ffffffffffffffffffffffffffffffffffffffff1614612874576040517f08c379a00000000000000000000000000000000000000000000000000000000081526004018080602001828103825260388152602001806155126038913960400191505060405180910390fd5b60008083815260200190815260200160002060030160019054906101000a900473ffffffffffffffffffffffffffffffffffffffff169050919050565b60603373ffffffffffffffffffffffffffffffffffffffff16600160003373ffffffffffffffffffffffffffffffffffffffff1673ffffffffffffffffffffffffffffffffffffffff16815260200190815260200160002060010160009054906101000a900473ffffffffffffffffffffffffffffffffffffffff1673ffffffffffffffffffffffffffffffffffffffff1614612999576040517f08c379a00000000000000000000000000000000000000000000000000000000081526004018080602001828103825260388152602001806155126038913960400191505060405180910390fd5b606060098054905067ffffffffffffffff811180156129b757600080fd5b506040519080825280602002602001820160405280156129e65781602001602082028036833780820191505090505b509050600080905060008090505b600980549050811015612ac9578473ffffffffffffffffffffffffffffffffffffffff166002600060098481548110612a2957fe5b9060005260206000200154815260200190815260200160002060010160009054906101000a900473ffffffffffffffffffffffffffffffffffffffff1673ffffffffffffffffffffffffffffffffffffffff161415612abc5760098181548110612a8f57fe5b9060005260206000200154838360ff1681518110612aa957fe5b6020026020010181815250506001820191505b80806001019150506129f4565b508192505050919050565b60016020528060005260406000206000915090508060000154908060010160009054906101000a900473ffffffffffffffffffffffffffffffffffffffff16908060020154908060030160009054906101000a900460ff16908060040154905085565b60088181548110612b4457fe5b906000526020600020016000915090505481565b60036020528060005260406000206000915090508060000154908060010160009054906101000a900473ffffffffffffffffffffffffffffffffffffffff16908060020154908060030160009054906101000a900460ff16905084565b60003373ffffffffffffffffffffffffffffffffffffffff16600160003373ffffffffffffffffffffffffffffffffffffffff1673ffffffffffffffffffffffffffffffffffffffff16815260200190815260200160002060010160009054906101000a900473ffffffffffffffffffffffffffffffffffffffff1673ffffffffffffffffffffffffffffffffffffffff1614612c9d576040517f08c379a00000000000000000000000000000000000000000000000000000000081526004018080602001828103825260388152602001806155126038913960400191505060405180910390fd5b82828060066000848152602001908152602001600020541415612d28576040517f08c379a00000000000000000000000000000000000000000000000000000000081526004018080602001828103825260168152602001807f41757468656e7469636174696f6e206661696c6564210000000000000000000081525060200191505060405180910390fd5b600080868152602001908152602001600020600101549250505092915050565b60003373ffffffffffffffffffffffffffffffffffffffff16600160003373ffffffffffffffffffffffffffffffffffffffff1673ffffffffffffffffffffffffffffffffffffffff16815260200190815260200160002060010160009054906101000a900473ffffffffffffffffffffffffffffffffffffffff1673ffffffffffffffffffffffffffffffffffffffff1614612e30576040517f08c379a00000000000000000000000000000000000000000000000000000000081526004018080602001828103825260388152602001806155126038913960400191505060405180910390fd5b83838060066000848152602001908152602001600020541415612ebb576040517f08c379a00000000000000000000000000000000000000000000000000000000081526004018080602001828103825260168152602001807f41757468656e7469636174696f6e206661696c6564210000000000000000000081525060200191505060405180910390fd5b856000808881526020019081526020016000206000015414612f45576040517f08c379a000000000000000000000000000000000000000000000000000000000815260040180806020018281038252601b8152602001807f5468697320637573746f6d657220646f65736e2774206578697473000000000081525060200191505060405180910390fd5b6000612f518787612bb5565b905080600080898152602001908152602001600020600101541415612fde576040517f08c379a00000000000000000000000000000000000000000000000000000000081526004018080602001828103825260208152602001807f5468697320637573746f6d6572206461746120697320757020746f206461746581525060200191505060405180910390fd5b84600080898152602001908152602001600020600101819055503360008089815260200190815260200160002060030160016101000a81548173ffffffffffffffffffffffffffffffffffffffff021916908373ffffffffffffffffffffffffffffffffffffffff160217905550600080600089815260200190815260200160002060020181905550600080600089815260200190815260200160002060030160006101000a81548160ff021916908360ff16021790555061309f87614933565b156130ae576130ad87614989565b5b6130b787614a51565b600193505050509392505050565b600a81815481106130d257fe5b906000526020600020016000915090505481565b6060600780548060200260200160405190810160405280929190818152602001828054801561316a57602002820191906000526020600020905b8160009054906101000a900473ffffffffffffffffffffffffffffffffffffffff1673ffffffffffffffffffffffffffffffffffffffff1681526020019060010190808311613120575b5050505050905090565b60003373ffffffffffffffffffffffffffffffffffffffff16600c60009054906101000a900473ffffffffffffffffffffffffffffffffffffffff1673ffffffffffffffffffffffffffffffffffffffff161461321c576040517f08c379a000000000000000000000000000000000000000000000000000000000815260040180806020018281038252603381526020018061548e6033913960400191505060405180910390fd5b8173ffffffffffffffffffffffffffffffffffffffff16600160008473ffffffffffffffffffffffffffffffffffffffff1673ffffffffffffffffffffffffffffffffffffffff16815260200190815260200160002060010160009054906101000a900473ffffffffffffffffffffffffffffffffffffffff1673ffffffffffffffffffffffffffffffffffffffff161461331f576040517f08c379a00000000000000000000000000000000000000000000000000000000081526004018080602001828103825260138152602001807f42616e6b20646f65736e2774206578697374730000000000000000000000000081525060200191505060405180910390fd5b61332882614de9565b600160008373ffffffffffffffffffffffffffffffffffffffff1673ffffffffffffffffffffffffffffffffffffffff1681526020019081526020016000206000808201600090556001820160006101000a81549073ffffffffffffffffffffffffffffffffffffffff021916905560028201600090556003820160006101000a81549060ff021916905560048201600090555050600560008373ffffffffffffffffffffffffffffffffffffffff1673ffffffffffffffffffffffffffffffffffffffff16815260200190815260200160002060006134089190615401565b600460008373ffffffffffffffffffffffffffffffffffffffff1673ffffffffffffffffffffffffffffffffffffffff16815260200190815260200160002060006134539190615422565b60019050919050565b6000806000806000803373ffffffffffffffffffffffffffffffffffffffff16600160003373ffffffffffffffffffffffffffffffffffffffff1673ffffffffffffffffffffffffffffffffffffffff16815260200190815260200160002060010160009054906101000a900473ffffffffffffffffffffffffffffffffffffffff1673ffffffffffffffffffffffffffffffffffffffff161461354b576040517f08c379a00000000000000000000000000000000000000000000000000000000081526004018080602001828103825260388152602001806155126038913960400191505060405180910390fd5b600d546000808981526020019081526020016000206002015411156136185760008088815260200190815260200160002060000154600080898152602001908152602001600020600101546000808a8152602001908152602001600020600201546000808b815260200190815260200160002060030160009054906101000a900460ff166000808c815260200190815260200160002060030160019054906101000a900473ffffffffffffffffffffffffffffffffffffffff1660019550955095509550955095506136c2565b60008088815260200190815260200160002060000154600080898152602001908152602001600020600101546000808a8152602001908152602001600020600201546000808b815260200190815260200160002060030160009054906101000a900460ff166000808c815260200190815260200160002060030160019054906101000a900473ffffffffffffffffffffffffffffffffffffffff1660009550955095509550955095505b91939550919395565b60003373ffffffffffffffffffffffffffffffffffffffff16600160003373ffffffffffffffffffffffffffffffffffffffff1673ffffffffffffffffffffffffffffffffffffffff16815260200190815260200160002060010160009054906101000a900473ffffffffffffffffffffffffffffffffffffffff1673ffffffffffffffffffffffffffffffffffffffff16146137b3576040517f08c379a00000000000000000000000000000000000000000000000000000000081526004018080602001828103825260388152602001806155126038913960400191505060405180910390fd5b600080838152602001908152602001600020600201549050919050565b60003373ffffffffffffffffffffffffffffffffffffffff16600160003373ffffffffffffffffffffffffffffffffffffffff1673ffffffffffffffffffffffffffffffffffffffff16815260200190815260200160002060010160009054906101000a900473ffffffffffffffffffffffffffffffffffffffff1673ffffffffffffffffffffffffffffffffffffffff16146138b8576040517f08c379a00000000000000000000000000000000000000000000000000000000081526004018080602001828103825260388152602001806155126038913960400191505060405180910390fd5b600160008373ffffffffffffffffffffffffffffffffffffffff1673ffffffffffffffffffffffffffffffffffffffff168152602001908152602001600020600201549050919050565b60003373ffffffffffffffffffffffffffffffffffffffff16600160003373ffffffffffffffffffffffffffffffffffffffff1673ffffffffffffffffffffffffffffffffffffffff16815260200190815260200160002060010160009054906101000a900473ffffffffffffffffffffffffffffffffffffffff1673ffffffffffffffffffffffffffffffffffffffff16146139ea576040517f08c379a00000000000000000000000000000000000000000000000000000000081526004018080602001828103825260388152602001806155126038913960400191505060405180910390fd5b600073ffffffffffffffffffffffffffffffffffffffff1660008085815260200190815260200160002060030160019054906101000a900473ffffffffffffffffffffffffffffffffffffffff1673ffffffffffffffffffffffffffffffffffffffff1614613aa4576040517f08c379a00000000000000000000000000000000000000000000000000000000081526004018080602001828103825260568152602001806155c26056913960600191505060405180910390fd5b82600260008481526020019081526020016000206000015414613b12576040517f08c379a00000000000000000000000000000000000000000000000000000000081526004018080602001828103825260308152602001806154c16030913960400191505060405180910390fd5b600115156002600084815260200190815260200160002060030160009054906101000a900460ff16151514613baf576040517f08c379a000000000000000000000000000000000000000000000000000000000815260040180806020018281038252601c8152602001807f4e6f7420616c6c6f77656420746f2061646420637573746f6d6572730000000081525060200191505060405180910390fd5b826000808581526020019081526020016000206000018190555081600080858152602001908152602001600020600101819055503360008085815260200190815260200160002060030160016101000a81548173ffffffffffffffffffffffffffffffffffffffff021916908373ffffffffffffffffffffffffffffffffffffffff160217905550600460003373ffffffffffffffffffffffffffffffffffffffff1673ffffffffffffffffffffffffffffffffffffffff168152602001908152602001600020839080600181540180825580915050600190039060005260206000200160009091909190915055600160008085815260200190815260200160002060030160008282829054906101000a900460ff160192506101000a81548160ff021916908360ff160217905550600780549050606460008086815260200190815260200160002060030160009054906101000a900460ff160260ff1681613d1457fe5b0460008085815260200190815260200160002060020181905550600b839080600181540180825580915050600190039060005260206000200160009091909190915055613d618383611fca565b507f300000000000000000000000000000000000000000000000000000000000000060066000858152602001908152602001600020819055506001905092915050565b60078181548110613db157fe5b906000526020600020016000915054906101000a900473ffffffffffffffffffffffffffffffffffffffff1681565b60003373ffffffffffffffffffffffffffffffffffffffff16600160003373ffffffffffffffffffffffffffffffffffffffff1673ffffffffffffffffffffffffffffffffffffffff16815260200190815260200160002060010160009054906101000a900473ffffffffffffffffffffffffffffffffffffffff1673ffffffffffffffffffffffffffffffffffffffff1614613ec8576040517f08c379a00000000000000000000000000000000000000000000000000000000081526004018080602001828103825260388152602001806155126038913960400191505060405180910390fd5b8173ffffffffffffffffffffffffffffffffffffffff16600160008473ffffffffffffffffffffffffffffffffffffffff1673ffffffffffffffffffffffffffffffffffffffff16815260200190815260200160002060010160009054906101000a900473ffffffffffffffffffffffffffffffffffffffff1673ffffffffffffffffffffffffffffffffffffffff1614613fcb576040517f08c379a00000000000000000000000000000000000000000000000000000000081526004018080602001828103825260188152602001807f546869732062616e6b20646f65736e277420657869737473000000000000000081525060200191505060405180910390fd5b8173ffffffffffffffffffffffffffffffffffffffff163373ffffffffffffffffffffffffffffffffffffffff161415614050576040517f08c379a00000000000000000000000000000000000000000000000000000000081526004018080602001828103825260218152602001806154f16021913960400191505060405180910390fd5b60008090506000600d54600160008673ffffffffffffffffffffffffffffffffffffffff1673ffffffffffffffffffffffffffffffffffffffff1681526020019081526020016000206002015411905060008090505b600560003373ffffffffffffffffffffffffffffffffffffffff1673ffffffffffffffffffffffffffffffffffffffff16815260200190815260200160002080549050811015614230578473ffffffffffffffffffffffffffffffffffffffff16600560003373ffffffffffffffffffffffffffffffffffffffff1673ffffffffffffffffffffffffffffffffffffffff168152602001908152602001600020828154811061415157fe5b9060005260206000200160009054906101000a900473ffffffffffffffffffffffffffffffffffffffff1673ffffffffffffffffffffffffffffffffffffffff161415614223577fb6d4c80e432e3b2f0a7bdebcf6040197f0bd0572e7bb324e126521fa5966657c33604051808273ffffffffffffffffffffffffffffffffffffffff1673ffffffffffffffffffffffffffffffffffffffff168152602001806020018281038252602981526020018061554a602991396040019250505060405180910390a160009350505050614614565b80806001019150506140a6565b50600560003373ffffffffffffffffffffffffffffffffffffffff1673ffffffffffffffffffffffffffffffffffffffff168152602001908152602001600020849080600181540180825580915050600190039060005260206000200160009091909190916101000a81548173ffffffffffffffffffffffffffffffffffffffff021916908373ffffffffffffffffffffffffffffffffffffffff16021790555060008090505b60078054905081101561446e5760008090505b60056000600784815481106142fb57fe5b9060005260206000200160009054906101000a900473ffffffffffffffffffffffffffffffffffffffff1673ffffffffffffffffffffffffffffffffffffffff1673ffffffffffffffffffffffffffffffffffffffff16815260200190815260200160002080549050811015614460578573ffffffffffffffffffffffffffffffffffffffff16600560006007858154811061439357fe5b9060005260206000200160009054906101000a900473ffffffffffffffffffffffffffffffffffffffff1673ffffffffffffffffffffffffffffffffffffffff1673ffffffffffffffffffffffffffffffffffffffff168152602001908152602001600020828154811061440357fe5b9060005260206000200160009054906101000a900473ffffffffffffffffffffffffffffffffffffffff1673ffffffffffffffffffffffffffffffffffffffff1614156144535783806001019450505b80806001019150506142ea565b5080806001019150506142d7565b50600780549050606483028161448057fe5b04600160008673ffffffffffffffffffffffffffffffffffffffff1673ffffffffffffffffffffffffffffffffffffffff168152602001908152602001600020600201819055506000151581151514801561451e5750600d54600160008673ffffffffffffffffffffffffffffffffffffffff1673ffffffffffffffffffffffffffffffffffffffff16815260200190815260200160002060020154115b1561460d5760008090505b60098054905081101561460b578473ffffffffffffffffffffffffffffffffffffffff16600260006009848154811061455e57fe5b9060005260206000200154815260200190815260200160002060010160009054906101000a900473ffffffffffffffffffffffffffffffffffffffff1673ffffffffffffffffffffffffffffffffffffffff1614156145fe57600160026000600984815481106145ca57fe5b9060005260206000200154815260200190815260200160002060030160006101000a81548160ff0219169083151502179055505b8080600101915050614529565b505b6001925050505b919050565b60026020528060005260406000206000915090508060000154908060010160009054906101000a900473ffffffffffffffffffffffffffffffffffffffff16908060020154908060030160009054906101000a900460ff16905084565b600b818154811061468357fe5b906000526020600020016000915090505481565b60603373ffffffffffffffffffffffffffffffffffffffff16600160003373ffffffffffffffffffffffffffffffffffffffff1673ffffffffffffffffffffffffffffffffffffffff16815260200190815260200160002060010160009054906101000a900473ffffffffffffffffffffffffffffffffffffffff1673ffffffffffffffffffffffffffffffffffffffff161461477f576040517f08c379a00000000000000000000000000000000000000000000000000000000081526004018080602001828103825260388152602001806155126038913960400191505060405180910390fd5b606060098054905067ffffffffffffffff8111801561479d57600080fd5b506040519080825280602002602001820160405280156147cc5781602001602082028036833780820191505090505b509050600080905060008090505b6009805490508110156148c5578473ffffffffffffffffffffffffffffffffffffffff16600260006009848154811061480f57fe5b9060005260206000200154815260200190815260200160002060010160009054906101000a900473ffffffffffffffffffffffffffffffffffffffff1673ffffffffffffffffffffffffffffffffffffffff1614156148b857600260006009838154811061487957fe5b9060005260206000200154815260200190815260200160002060000154838360ff16815181106148a557fe5b6020026020010181815250506001820191505b80806001019150506147da565b508192505050919050565b60006020528060005260406000206000915090508060000154908060010154908060020154908060030160009054906101000a900460ff16908060030160019054906101000a900473ffffffffffffffffffffffffffffffffffffffff16905085565b600080600090505b60088054905081101561497e57826008828154811061495657fe5b90600052602060002001541415614971576001915050614984565b808060010191505061493b565b50600090505b919050565b60008090505b600880549050811015614a445781600882815481106149aa57fe5b90600052602060002001541415614a375760006001820190505b600880549050811015614a1457600881815481106149de57fe5b9060005260206000200154600860018303815481106149f957fe5b906000526020600020018190555080806001019150506149c4565b506008805480614a2057fe5b600190038181906000526020600020016000905590555b808060010191505061498f565b50614a4e81614a51565b50565b60008090505b600780549050811015614de55760008090505b6004600060078481548110614a7b57fe5b9060005260206000200160009054906101000a900473ffffffffffffffffffffffffffffffffffffffff1673ffffffffffffffffffffffffffffffffffffffff1673ffffffffffffffffffffffffffffffffffffffff16815260200190815260200160002080549050811015614dd757826004600060078581548110614afd57fe5b9060005260206000200160009054906101000a900473ffffffffffffffffffffffffffffffffffffffff1673ffffffffffffffffffffffffffffffffffffffff1673ffffffffffffffffffffffffffffffffffffffff1681526020019081526020016000208281548110614b6d57fe5b90600052602060002001541415614dca5760006001820190505b6004600060078581548110614b9857fe5b9060005260206000200160009054906101000a900473ffffffffffffffffffffffffffffffffffffffff1673ffffffffffffffffffffffffffffffffffffffff1673ffffffffffffffffffffffffffffffffffffffff16815260200190815260200160002080549050811015614d33576004600060078581548110614c1957fe5b9060005260206000200160009054906101000a900473ffffffffffffffffffffffffffffffffffffffff1673ffffffffffffffffffffffffffffffffffffffff1673ffffffffffffffffffffffffffffffffffffffff1681526020019081526020016000208181548110614c8957fe5b90600052602060002001546004600060078681548110614ca557fe5b9060005260206000200160009054906101000a900473ffffffffffffffffffffffffffffffffffffffff1673ffffffffffffffffffffffffffffffffffffffff1673ffffffffffffffffffffffffffffffffffffffff1681526020019081526020016000206001830381548110614d1857fe5b90600052602060002001819055508080600101915050614b87565b506004600060078481548110614d4557fe5b9060005260206000200160009054906101000a900473ffffffffffffffffffffffffffffffffffffffff1673ffffffffffffffffffffffffffffffffffffffff1673ffffffffffffffffffffffffffffffffffffffff168152602001908152602001600020805480614db357fe5b600190038181906000526020600020016000905590555b8080600101915050614a6a565b508080600101915050614a57565b5050565b60008090505b600780549050811015614fa3578173ffffffffffffffffffffffffffffffffffffffff1660078281548110614e2057fe5b9060005260206000200160009054906101000a900473ffffffffffffffffffffffffffffffffffffffff1673ffffffffffffffffffffffffffffffffffffffff161415614f965760078181548110614e7457fe5b9060005260206000200160006101000a81549073ffffffffffffffffffffffffffffffffffffffff021916905560006001820190505b600780549050811015614f545760078181548110614ec457fe5b9060005260206000200160009054906101000a900473ffffffffffffffffffffffffffffffffffffffff1660076001830381548110614eff57fe5b9060005260206000200160006101000a81548173ffffffffffffffffffffffffffffffffffffffff021916908373ffffffffffffffffffffffffffffffffffffffff1602179055508080600101915050614eaa565b506007805480614f6057fe5b6001900381819060005260206000200160006101000a81549073ffffffffffffffffffffffffffffffffffffffff021916905590555b8080600101915050614def565b5060008090505b6007805490508110156153fd5760008090505b6005600060078481548110614fce57fe5b9060005260206000200160009054906101000a900473ffffffffffffffffffffffffffffffffffffffff1673ffffffffffffffffffffffffffffffffffffffff1673ffffffffffffffffffffffffffffffffffffffff168152602001908152602001600020805490508110156153ef578273ffffffffffffffffffffffffffffffffffffffff16600560006007858154811061506657fe5b9060005260206000200160009054906101000a900473ffffffffffffffffffffffffffffffffffffffff1673ffffffffffffffffffffffffffffffffffffffff1673ffffffffffffffffffffffffffffffffffffffff16815260200190815260200160002082815481106150d657fe5b9060005260206000200160009054906101000a900473ffffffffffffffffffffffffffffffffffffffff1673ffffffffffffffffffffffffffffffffffffffff1614156153e25760006001820190505b600560006007858154811061513757fe5b9060005260206000200160009054906101000a900473ffffffffffffffffffffffffffffffffffffffff1673ffffffffffffffffffffffffffffffffffffffff1673ffffffffffffffffffffffffffffffffffffffff1681526020019081526020016000208054905081101561532c5760056000600785815481106151b857fe5b9060005260206000200160009054906101000a900473ffffffffffffffffffffffffffffffffffffffff1673ffffffffffffffffffffffffffffffffffffffff1673ffffffffffffffffffffffffffffffffffffffff168152602001908152602001600020818154811061522857fe5b9060005260206000200160009054906101000a900473ffffffffffffffffffffffffffffffffffffffff16600560006007868154811061526457fe5b9060005260206000200160009054906101000a900473ffffffffffffffffffffffffffffffffffffffff1673ffffffffffffffffffffffffffffffffffffffff1673ffffffffffffffffffffffffffffffffffffffff16815260200190815260200160002060018303815481106152d757fe5b9060005260206000200160006101000a81548173ffffffffffffffffffffffffffffffffffffffff021916908373ffffffffffffffffffffffffffffffffffffffff1602179055508080600101915050615126565b50600560006007848154811061533e57fe5b9060005260206000200160009054906101000a900473ffffffffffffffffffffffffffffffffffffffff1673ffffffffffffffffffffffffffffffffffffffff1673ffffffffffffffffffffffffffffffffffffffff1681526020019081526020016000208054806153ac57fe5b6001900381819060005260206000200160006101000a81549073ffffffffffffffffffffffffffffffffffffffff021916905590555b8080600101915050614fbd565b508080600101915050614faa565b5050565b508054600082559060005260206000209081019061541f9190615443565b50565b50805460008255906000526020600020908101906154409190615468565b50565b61546591905b80821115615461576000816000905550600101615449565b5090565b90565b61548a91905b8082111561548657600081600090555060010161546e565b5090565b9056fe4f6e6c792061646d696e20697320616c6c6f77656420746f206f70657261746520746869732066756e6374696f6e616c697479506c65617365207261697365204b59432072657175657374206265666f726520616464696e6720637573746f6d65727342616e6b732063616e2774207570766f7465207468656972206f776e2062616e6b556e61757468656e7469636174656420726571756573746f72212042616e6b206e6f74206265656e2061646465642062792061646d696e2e42616e6b2068617320616c726561647920766f74656420666f722074686520676976656e2062616e6b5468697320637573746f6d65722773204b5943207265717565737420646f65736e27742065786973747342616e6b20776974682073616d65206164647265737320616c7265616479206578697374735468697320637573746f6d657220697320616c72656164792070726573656e742c20706c656173652063616c6c206d6f64696679437573746f6d657220746f20656469742074686520637573746f6d6572206461746142616e6b20616c726561647920766f74656420666f72207468697320637573746f6d657254686973207573657220616c7265616479206861732061204b5943207265717565737420776974682073616d65206461746120696e2070726f636573732ea2646970667358221220b08cc48f3b3a65f56825a5f73d12a1092594fef6677b823ef2aff711ea2f176f64736f6c63430006090033",
  "immutableReferences": {},
  "source": "pragma solidity ^0.6.9;\n\ncontract Kyc {\n    // Customer Struct. It defines a customer and validating bank's details\n    struct Customer {\n        bytes32 userName;\n        bytes32 dataHash;\n        uint256 rating;\n        uint8 upVotes;\n        address bank;\n    }\n\n    // Bank Struct. It defines the bank details\n    struct Bank {\n        bytes32 name;\n        address bank;\n        uint256 rating;\n        uint8 kycCount;\n        bytes32 regNumber;\n    }\n\n    // KycRequest struct. It defines kyc request details of customers\n    struct KycRequest {\n        bytes32 userName;\n        address bank;\n        bytes32 dataHash;\n        bool isAllowed;\n    }\n\n    // Mappings for custom data types of Customer, Bank and KycRequest\n    mapping(bytes32 => Customer) public customers;\n    mapping(address => Bank) public banks;\n    mapping(bytes32 => KycRequest) public kycRequests;\n    mapping(bytes32 => KycRequest) public customerKycReq;\n\n    // Mappings to maintain banks to banks and customer votes respectively\n    mapping(address => bytes32[]) internal bankToCustomerVotes;\n    mapping(address => address[]) internal bankToBankVotes;\n\n    // Mapping to maintain password list of customer to password\n    mapping(bytes32 => bytes32) internal passwordList;\n\n    // Arrays to maintain bank list, final customers list and customer requests dataHash list\n    address[] public bankList;\n    bytes32[] public finalCustomers;\n    bytes32[] internal customerReqDataList;\n    bytes32[] public customerReqList;\n    bytes32[] public customerVerificationList;\n\n    // State variables to define admin address and minimum acceptable rating for banks and customers\n    address admin;\n    uint256 minRating;\n\n    /*\n     * Set admin to one who deploy this contract\n     * Set minRating of 50%\n     */\n\n    constructor() public {\n        admin = msg.sender;\n        minRating = (100 / 2);\n    }\n\n    // Modifiers\n\n    // Checks whether the requestor is admin\n    modifier isAdmin {\n        require(\n            admin == msg.sender,\n            \"Only admin is allowed to operate this functionality\"\n        );\n        _;\n    }\n\n    // Checks whether bank has been validated and added by admin\n    modifier isBankValid {\n        require(\n            banks[msg.sender].bank == msg.sender,\n            \"Unauthenticated requestor! Bank not been added by admin.\"\n        );\n        _;\n    }\n\n    // Authenticates the password\n    modifier validatePassword(bytes32 customerName, bytes32 password) {\n        require(\n            passwordList[customerName] != password,\n            \"Authentication failed!\"\n        );\n        _;\n    }\n\n    // Events\n    event alreadyVoted(address bankAddress, string message);\n\n    // ----- Bank Interface -----\n\n    /*\n     * Records new KYC request for customerName\n     * @param {bytes32} customerName The user name of the customer for whom the request is to be raised\n     * @param {bytes32} customerDataHash  The hash of the data or identification documents provided by the Customer\n     * modifier isBankValid Checks whether bank has been validated and added by admin\n     * @returns {uint8} Returns 1 if the execution is successful, 0 otherwise\n     */\n    function addKycRequest(bytes32 customerName, bytes32 customerDataHash)\n        public\n        isBankValid\n        returns (uint8)\n    {\n        require(\n            kycRequests[customerDataHash].bank == address(0),\n            \"This user already has a KYC request with same data in process.\"\n        );\n\n        kycRequests[customerDataHash].userName = customerName;\n        kycRequests[customerDataHash].dataHash = customerDataHash;\n        kycRequests[customerDataHash].bank = msg.sender;\n\n        // Initialize isAllowed flag for request based on bank's minimum rating\n        if (banks[msg.sender].rating <= minRating)\n            kycRequests[customerDataHash].isAllowed = false;\n        else kycRequests[customerDataHash].isAllowed = true;\n\n        // Push customer request data to customerReqDataList array\n        customerReqDataList.push(customerDataHash);\n        customerReqList.push(customerName);\n\n        banks[msg.sender].kycCount += 1;\n\n        customerKycReq[customerName].userName = customerName;\n        customerKycReq[customerName].dataHash = customerDataHash;\n        customerKycReq[customerName].bank = msg.sender;\n\n        return 1;\n    }\n\n    /*\n     * Adds customer to customers mapping\n     * Add the requestor's bank's vote and update the customer rating\n     * @param {bytes32} customerName The user name of the customer for whom the request is made\n     * @param {bytes32} customerDataHash  The hash of the data or identification documents provided by the Customer\n     * modifier isBankValid Checks whether bank has been validated and added by admin\n     * @returns {uint8} Returns 1 if the execution is successful, 0 otherwise\n     */\n    function addCustomer(bytes32 customerName, bytes32 customerDataHash)\n        public\n        isBankValid\n        returns (uint8)\n    {\n        require(\n            customers[customerName].bank == address(0),\n            \"This customer is already present, please call modifyCustomer to edit the customer data\"\n        );\n        require(\n            kycRequests[customerDataHash].userName == customerName,\n            \"Please raise KYC request before adding customers\"\n        );\n        require(\n            kycRequests[customerDataHash].isAllowed == true,\n            \"Not allowed to add customers\"\n        );\n\n        customers[customerName].userName = customerName;\n        customers[customerName].dataHash = customerDataHash;\n        customers[customerName].bank = msg.sender;\n\n        // Record bank's vote and update the vote and rating for the customer\n        bankToCustomerVotes[msg.sender].push(customerName);\n        customers[customerName].upVotes += 1;\n        customers[customerName].rating =\n            (customers[customerName].upVotes * 100) /\n            bankList.length;\n\n        customerVerificationList.push(customerName);\n\n        // Remove KYC request once the customer is added to the lsit\n        removeKycRequest(customerName, customerDataHash);\n\n        // Initialize the customer password to '0'. Once customer needs data to be protected, bank can set the password for those customers.\n        passwordList[customerName] = \"0\";\n\n        return 1;\n    }\n\n    /*\n     * Remove KYC request for the customer data\n     * @param {bytes32} customerName The user name of the customer for whom the request is made\n     * @param {bytes32} customerDataHash  The hash of the data or identification documents provided by the Customer\n     * @returns {uint8} Returns 1 if the execution is successful, 0 otherwise\n     */\n    function removeKycRequest(bytes32 customerName, bytes32 customerDataHash)\n        public\n        isBankValid\n        returns (uint8)\n    {\n        require(\n            kycRequests[customerDataHash].userName == customerName,\n            \"This customer's KYC request doesn't exists\"\n        );\n\n        delete kycRequests[customerDataHash];\n\n        // Remove KYC request from the list\n        // removeKycRequest(customerName, customerDataHash);\n        for (uint256 i = 0; i < customerReqDataList.length; i++) {\n            if (customerReqDataList[i] == customerDataHash) {\n                for (uint256 j = i + 1; j < customerReqDataList.length; j++) {\n                    customerReqDataList[j - 1] = customerReqDataList[j];\n                }\n                customerReqDataList.pop();\n                return 1;\n            }\n        }\n\n        return 1;\n    }\n\n    /*\n     * Remove customer mapping\n     * Remove customer from final customer list\n     * Remove customer's vote given by the banks\n     * Remove customer's password\n     * @param {bytes32} customerName The user name of the customer for whom the request is made\n     * @param {bytes32} customerDataHash  The hash of the data or identification documents provided by the Customer\n     * modifier isBankValid Checks whether bank has been validated and added by admin\n     * @returns {uint8} Returns 1 if the execution is successful, 0 otherwise\n     */\n    function removeCustomer(bytes32 customerName)\n        external\n        isBankValid\n        returns (uint8)\n    {\n        require(\n            customers[customerName].userName == customerName,\n            \"This customer doesn't exits\"\n        );\n\n        delete customers[customerName];\n        delete passwordList[customerName];\n\n        // if customer is present in final customer list then remove customer from the final list and remove the votes given to the customer by the banks\n        if (isCustomerPresent(customerName))\n            removeAcceptedCustomer(customerName);\n\n        return 1;\n    }\n\n    /*\n     * View customer dataHash\n     * @param {bytes32} customerName The user name of the customer for whom the request is made\n     * @param {bytes32} password Password for the customer\n     * modifier isBankValid Checks whether bank has been validated and added by admin\n     * @modifier validatePassword Validate if the password is set for customer then its valid\n     * @returns {bytes32} The hash of the data or identification documents of the customer\n     */\n    function viewCustomer(bytes32 customerName, bytes32 password)\n        public\n        view\n        isBankValid\n        validatePassword(customerName, password)\n        returns (bytes32)\n    {\n        return customers[customerName].dataHash;\n    }\n\n    function viewCustomerDetails(bytes32 customerName)\n        public\n        view\n        isBankValid\n        returns (\n            bytes32,\n            address,\n            bytes32,\n            bool\n        )\n    {\n        bytes32 customerDataHash = customerKycReq[customerName].dataHash;\n        return (\n            kycRequests[customerDataHash].userName,\n            kycRequests[customerDataHash].bank,\n            kycRequests[customerDataHash].dataHash,\n            kycRequests[customerDataHash].isAllowed\n        );\n    }\n\n    function viewPedingCustomerDetails(bytes32 customerName)\n        public\n        view\n        isBankValid\n        returns (\n            bytes32,\n            bytes32,\n            uint256,\n            uint8,\n            address,\n            bool\n        )\n    {\n        if (customers[customerName].rating > minRating) {\n            return (\n                customers[customerName].userName,\n                customers[customerName].dataHash,\n                customers[customerName].rating,\n                customers[customerName].upVotes,\n                customers[customerName].bank,\n                true\n            );\n        } else {\n            return (\n                customers[customerName].userName,\n                customers[customerName].dataHash,\n                customers[customerName].rating,\n                customers[customerName].upVotes,\n                customers[customerName].bank,\n                false\n            );\n        }\n    }\n\n    // Get all the bank's customers who have raised the kyc requests\n    function getRequestedCustomers(address bankAddress)\n        public\n        view\n        isBankValid\n        returns (bytes32[] memory)\n    {\n        bytes32[] memory customerList = new bytes32[](\n            customerReqDataList.length\n        );\n        uint8 count = 0;\n\n        // Get all the dataHash of the customer for which bank has raised a request\n        for (uint256 i = 0; i < customerReqDataList.length; i++) {\n            if (kycRequests[customerReqDataList[i]].bank == bankAddress) {\n                customerList[count] = kycRequests[customerReqDataList[i]]\n                    .userName;\n                count = count + 1;\n            }\n        }\n        return customerList;\n    }\n\n    // get all the verification requests of customer raised by a bank\n    function getPendingCustomers()\n        public\n        view\n        isBankValid\n        returns (bytes32[] memory)\n    {\n        bytes32[] memory customerList = new bytes32[](\n            customerVerificationList.length\n        );\n        uint8 count = 0;\n\n        // Get all the dataHash of the customer for which bank has raised a request\n        for (uint256 i = 0; i < customerVerificationList.length; i++) {\n            // if (customers[customerVerificationList[i]].bank == bankAddress) {\n            customerList[count] = customers[customerVerificationList[i]]\n                .userName;\n            count = count + 1;\n            // }\n        }\n        return customerList;\n    }\n\n    function getVerifiedCustomers() public view returns (bytes32[] memory) {\n        return finalCustomers;\n    }\n\n    function getAllBanks() public view returns (address[] memory) {\n        return bankList;\n    }\n\n    /*\n     * Allows a bank to cast an upvote for a customer\n     * @param {bytes32} customerName The user name of the customer for whom the request is made\n     * modifier isBankValid Checks whether bank has been validated and added by admin\n     * @returns {uint8} Returns 1 if the execution is successful, 0 otherwise\n     */\n    function upVoteCustomer(bytes32 customerName)\n        public\n        isBankValid\n        returns (uint8)\n    {\n        require(\n            customers[customerName].userName == customerName,\n            \"This customer doesn't exists\"\n        );\n        require(\n            banks[msg.sender].bank == msg.sender,\n            \"Unauthenticated requestor! Bank not been added by admin.\"\n        );\n\n        // Check if bank has already voted for a customer\n        for (uint256 i = 0; i < bankToCustomerVotes[msg.sender].length; i++) {\n            if (bankToCustomerVotes[msg.sender][i] == customerName) {\n                emit alreadyVoted(\n                    msg.sender,\n                    \"Bank already voted for this customer\"\n                );\n                return 0;\n            }\n        }\n\n        // Add vote to the customer\n        bankToCustomerVotes[msg.sender].push(customerName);\n\n        // Evaluate customer's vote and rating based on current bank's vote\n        customers[customerName].upVotes += 1;\n        customers[customerName].rating =\n            (customers[customerName].upVotes * 100) /\n            bankList.length;\n\n        // If customer satisfies minimum rating criteria, add the customer to final customer list\n        if (customers[customerName].rating > minRating) {\n            finalCustomers.push(customerName);\n        }\n\n        return 1;\n    }\n\n    /*\n     * Modify customer details\n     * @param {bytes32} customerName The user name of the customer for whom the request is made\n     * @param {bytes32} password Password for the customer\n     * @param {bytes32} customerDataHash  The hash of the data to be updated\n     * modifier isBankValid Checks whether bank has been validated and added by admin\n     * @modifier validatePassword Validate if the password is set for customer then its valid to update the customer details\n     * @returns {uint8} Returns 1 if the execution is successful, 0 otherwise\n     */\n    function modifyCustomerData(\n        bytes32 customerName,\n        bytes32 password,\n        bytes32 dataHash\n    )\n        public\n        isBankValid\n        validatePassword(customerName, password)\n        returns (uint8)\n    {\n        require(\n            customers[customerName].userName == customerName,\n            \"This customer doesn't exits\"\n        );\n\n        // Validate whether same data is present for customer\n        bytes32 savedDataHash = viewCustomer(customerName, password);\n        require(\n            customers[customerName].dataHash != savedDataHash,\n            \"This customer data is up to date\"\n        );\n\n        // Update the customer dataHash and requestor bank\n        customers[customerName].dataHash = dataHash;\n        customers[customerName].bank = msg.sender;\n\n        // Initialize new data's rating and upvote by banks to 0\n        customers[customerName].rating = 0;\n        customers[customerName].upVotes = 0;\n\n        // If customer is present in final customer list then remove it.\n        if (isCustomerPresent(customerName))\n            removeAcceptedCustomer(customerName);\n\n        // Remove all the votes customer got from the bank\n        removeCustomerVotes(customerName);\n\n        return 1;\n    }\n\n    /*\n     * Fetch all the requests raised by the bank\n     * @param {address} bankAddress Bank address\n     * modifier isBankValid Checks whether bank has been validated and added by admin\n     * @returns {bytes32[]} Returns all the data hash of customer for which bank has raised a request\n     */\n    function getBankRequests(address bankAddress)\n        public\n        view\n        isBankValid\n        returns (bytes32[] memory)\n    {\n        bytes32[] memory dataList = new bytes32[](customerReqDataList.length);\n        uint8 count = 0;\n\n        // Get all the dataHash of the customer for which bank has raised a request\n        for (uint256 i = 0; i < customerReqDataList.length; i++) {\n            if (kycRequests[customerReqDataList[i]].bank == bankAddress) {\n                dataList[count] = customerReqDataList[i];\n                count = count + 1;\n            }\n        }\n        return dataList;\n    }\n\n    /*\n     * Upvote a bank\n     * @param {address} bankAddress Bank address to be upvoted\n     * modifier isBankValid Checks whether bank has been validated and added by admin\n     * @returns {uint8} Returns 1 if the execution is successful, 0 otherwise\n     */\n    function upVoteBank(address bankAddress)\n        public\n        isBankValid\n        returns (uint8)\n    {\n        require(\n            banks[bankAddress].bank == bankAddress,\n            \"This bank doesn't exists\"\n        );\n        require(msg.sender != bankAddress, \"Banks can't upvote their own bank\");\n\n        uint256 votesCount = 0;\n        bool isTrustedBank = banks[bankAddress].rating > minRating;\n\n        // Check whether bank as already voted for given bank\n        for (uint256 i = 0; i < bankToBankVotes[msg.sender].length; i++) {\n            if (bankToBankVotes[msg.sender][i] == bankAddress) {\n                emit alreadyVoted(\n                    msg.sender,\n                    \"Bank has already voted for the given bank\"\n                );\n                return 0;\n            }\n        }\n\n        bankToBankVotes[msg.sender].push(bankAddress);\n\n        // calculate upvotes for the bank from bankToBankVotes mapping\n        for (uint256 i = 0; i < bankList.length; i++) {\n            for (uint256 j = 0; j < bankToBankVotes[bankList[i]].length; j++) {\n                if (bankToBankVotes[bankList[i]][j] == bankAddress)\n                    votesCount++;\n            }\n        }\n\n        banks[bankAddress].rating = (votesCount * 100) / bankList.length;\n\n        // Allow all the requests made by the bank if bank satisfy min criteria. Will run only once for a bank when it just cross min criteria\n        if (isTrustedBank == false && banks[bankAddress].rating > minRating) {\n            for (uint256 i = 0; i < customerReqDataList.length; i++) {\n                if (kycRequests[customerReqDataList[i]].bank == bankAddress) {\n                    kycRequests[customerReqDataList[i]].isAllowed = true;\n                }\n            }\n        }\n\n        return 1;\n    }\n\n    /*\n     * Get customer rating\n     * @param {bytes32} customerName The user name of the customer for whom the request is made\n     * modifier isBankValid Checks whether bank has been validated and added by admin\n     * @returns {uint256} Returns the rating for the customer\n     */\n    function getCustomerRating(bytes32 customerName)\n        public\n        view\n        isBankValid\n        returns (uint256)\n    {\n        return customers[customerName].rating;\n    }\n\n    /*\n     * Get bank rating\n     * @param {address} The address of bank for which the request is made\n     * modifier isBankValid Checks whether bank has been validated and added by admin\n     * @returns {uint256} Returns the rating for the bank\n     */\n    function getBankRating(address bankAddress)\n        public\n        view\n        isBankValid\n        returns (uint256)\n    {\n        return banks[bankAddress].rating;\n    }\n\n    /*\n     * Get bank who has lately updated the customer details\n     * @param {bytes32} customerName The user name of the customer for whom the request is made\n     * modifier isBankValid Checks whether bank has been validated and added by admin\n     * @returns {address} Returns the bank address\n     */\n    function lastUpdatedBy(bytes32 customerName)\n        public\n        view\n        isBankValid\n        returns (address)\n    {\n        return customers[customerName].bank;\n    }\n\n    /*\n     * Set password for the customer data\n     * @param {bytes32} customerName The user name of the customer for whom the request is made\n     * @param {bytes32 password The password that need to be set for the customer data\n     * modifier isBankValid Checks whether bank has been validated and added by admin\n     * @returns {bool} Returns true if success, false otherwise\n     */\n    function setPassword(bytes32 customerName, bytes32 password)\n        public\n        isBankValid\n        returns (bool)\n    {\n        passwordList[customerName] = password;\n        return true;\n    }\n\n    /*\n     * Get bank details\n     * @param {address} The address of bank for which the request is made\n     * modifier isBankValid Checks whether bank has been validated and added by admin\n     * @returns {bytes32, address, uint256, uint8, bytes32} Returns bank details\n     */\n    function getBankDetails(address bankAddress)\n        public\n        view\n        returns (\n            bytes32,\n            address,\n            uint256,\n            uint8,\n            bytes32\n        )\n    {\n        require(banks[bankAddress].bank == bankAddress, \"Bank doesn't exists\");\n\n        return (\n            banks[bankAddress].name,\n            banks[bankAddress].bank,\n            banks[bankAddress].rating,\n            banks[bankAddress].kycCount,\n            banks[bankAddress].regNumber\n        );\n    }\n\n    // ----- Admin Interface -----\n\n    /*\n     * Add new bank\n     * @param {bytes32} bankName The name of the bank\n     * @param {address} bankAddress The address of the bankAddress\n     * @param {bytes32} regNumber THe unique registration number of the bank\n     * modifier isAdmin validate if only admin is able to make a request\n     * @returns {bool} Returns true if success, false otherwise\n     */\n    function addBank(\n        bytes32 bankName,\n        address bankAddress,\n        bytes32 regNumber\n    ) public isAdmin returns (bool) {\n        require(\n            banks[bankAddress].bank != bankAddress,\n            \"Bank with same address already exists\"\n        );\n\n        banks[bankAddress].name = bankName;\n        banks[bankAddress].bank = bankAddress;\n        banks[bankAddress].rating = 0;\n        banks[bankAddress].kycCount = 0;\n        banks[bankAddress].regNumber = regNumber;\n\n        bankList.push(bankAddress);\n\n        bankToBankVotes[bankAddress].push();\n        bankToCustomerVotes[bankAddress].push();\n\n        return true;\n    }\n\n    /*\n     * Remove a bank from the list\n     * @param {address} bankAddress The address of the bankAddress\n     * modifier isAdmin validate if only admin is able to make a request\n     * @returns {bool} Returns true if success, false otherwise\n     */\n    function removeBank(address bankAddress) public isAdmin returns (bool) {\n        require(banks[bankAddress].bank == bankAddress, \"Bank doesn't exists\");\n\n        removeBankFromList(bankAddress);\n\n        delete banks[bankAddress];\n        delete bankToBankVotes[bankAddress];\n        delete bankToCustomerVotes[bankAddress];\n\n        return true;\n    }\n\n    // ----- Helper functions -----\n\n    // Function to validate if the customer is present in final customer list\n    function isCustomerPresent(bytes32 customerName)\n        internal\n        view\n        returns (bool)\n    {\n        for (uint256 i = 0; i < finalCustomers.length; i++) {\n            if (finalCustomers[i] == customerName) return true;\n        }\n        return false;\n    }\n\n    // Function to remove the customer from final list and associated votes from bank\n    function removeAcceptedCustomer(bytes32 customerName) internal {\n        for (uint256 index = 0; index < finalCustomers.length; index++) {\n            if (finalCustomers[index] == customerName) {\n                for (uint256 j = index + 1; j < finalCustomers.length; j++) {\n                    finalCustomers[j - 1] = finalCustomers[j];\n                }\n                finalCustomers.pop();\n            }\n        }\n        removeCustomerVotes(customerName);\n    }\n\n    // Function to remove customer votes from all the bank\n    function removeCustomerVotes(bytes32 customerName) internal {\n        for (uint256 i = 0; i < bankList.length; i++) {\n            for (\n                uint256 j = 0;\n                j < bankToCustomerVotes[bankList[i]].length;\n                j++\n            ) {\n                if (bankToCustomerVotes[bankList[i]][j] == customerName) {\n                    for (\n                        uint256 k = j + 1;\n                        k < bankToCustomerVotes[bankList[i]].length;\n                        k++\n                    ) {\n                        bankToCustomerVotes[bankList[i]][k -\n                            1] = bankToCustomerVotes[bankList[i]][k];\n                    }\n                    bankToCustomerVotes[bankList[i]].pop();\n                }\n            }\n        }\n    }\n\n    // Function to remove bank from the list\n    function removeBankFromList(address bankAddress) internal {\n        for (uint256 i = 0; i < bankList.length; i++) {\n            if (bankList[i] == bankAddress) {\n                delete bankList[i];\n                for (uint256 j = i + 1; j < bankList.length; j++) {\n                    bankList[j - 1] = bankList[j];\n                }\n                bankList.pop();\n            }\n        }\n\n        // remove bank votes from all the banks\n        for (uint256 i = 0; i < bankList.length; i++) {\n            for (uint256 j = 0; j < bankToBankVotes[bankList[i]].length; j++) {\n                if (bankToBankVotes[bankList[i]][j] == bankAddress) {\n                    for (\n                        uint256 k = j + 1;\n                        k < bankToBankVotes[bankList[i]].length;\n                        k++\n                    ) {\n                        bankToBankVotes[bankList[i]][k -\n                            1] = bankToBankVotes[bankList[i]][k];\n                    }\n                    bankToBankVotes[bankList[i]].pop();\n                }\n            }\n        }\n    }\n}\n",
  "sourcePath": "/Users/ashleshsortee/Desktop/Blockchain/Ethereum/decentralized-kyc/contracts/Kyc.sol",
  "compiler": {
    "name": "solc",
    "version": "0.6.9+commit.3e3065ac.Emscripten.clang"
  },
  "schemaVersion": "3.2.0",
  "updatedAt": "2020-12-12T07:12:08.606Z",
  "networkType": "ethereum",
  "devdoc": {
    "methods": {}
  },
  "userdoc": {
    "methods": {}
  }
}